:020000040800F2
:10000000B008002091010008AF130008B7120008E3
:10001000AD130008E3040008991600080000000072
:10002000000000000000000000000000B313000802
:10003000E504000800000000B1130008B513000833
:10004000AB010008AB010008AB010008AB010008E0
:10005000AB010008AB010008AB010008AB010008D0
:10006000AB010008AB010008AB010008AB010008C0
:10007000AB010008AB010008AB010008AB010008B0
:10008000AB010008AB010008AB010008AB010008A0
:10009000AB010008AB010008AB010008AB01000890
:1000A000AB010008AB010008AB010008AB01000880
:1000B000AB010008AB01000800000000AB01000824
:1000C000AB0100080000000000000000AB010008C8
:1000D000000000008D160008AB01000800000000C1
:1000E000AB010008AB010008AB01000800F002F80A
:1000F00000F03FF80AA090E8000C82448344AAF183
:100100000107DA4501D100F034F8AFF2090EBAE880
:100110000F0013F0010F18BFFB1A43F0010318473B
:10012000B81C0000D81C0000103A24BF78C878C161
:10013000FAD8520724BF30C830C144BF04680C60ED
:10014000704700000023002400250026103A28BF35
:1001500078C1FBD8520728BF30C148BF0B60704739
:10016000732900F08081002070471FB51FBD10B5B6
:1001700010BD00F07CF91146FFF7F7FF01F0C0FA5F
:1001800000F09AF903B4FFF7F2FF03BC00F0A2F904
:100190000948804709480047FEE7FEE7FEE7FEE71B
:1001A000FEE7FEE7FEE7FEE7FEE7FEE70448054957
:1001B000054A064B7047000009140008ED000008CE
:1001C000B0020020B0080020B0040020B0040020DD
:1001D0000FB41CB5084B06AA7B44694600900598ED
:1001E00000F017F904460020694600F025F9204682
:1001F0001CBC5DF814FB00005D0200002DE9F0411D
:100200000E460446002020622046E168884730B34D
:10021000252805D0D4E901219047206A401CF2E747
:10022000E168204600278847050018D0A5F1410065
:10023000192802D820354FF4006732462946204657
:100240002760FFF78DFF40B1012804D0F61D26F08E
:1002500007060836D8E7361DD6E72846DAE7206ACB
:10026000BDE8F08170B50C460546012A05D0287816
:10027000800600D5EA69002302E0012305E05B1C4B
:10028000934202D2E05C0028F9D1A869E618C01AAE
:10029000A861286A184428622846AFF3008004E069
:1002A000D5E9012114F8010B9047B442F8D3284650
:1002B000AFF3008070BD30B505460B462A4613F8F3
:1002C000014B12F8010B08B1A042F8D01CB1002874
:1002D00002D06D1CF1E7284630BD40EA010370B53D
:1002E0009B072ED14FF00136042A2AD308C810C923
:1002F0009D1B9D43121F15EAC61517D0D8B2E1B257
:10030000401A50EA056110D198B2A1B2401A50EAE1
:1003100005410AD123F07F4024F07F41401A50EA82
:10032000052102D1180EA0EB146070BDA342DBD0F2
:1003300018BA21BA884201D9012070BD4FF0FF30B0
:1003400070BD0AB9002070BD10F8013B11F8014BD7
:1003500063B1A3420AD1521E08D010F8013B11F834
:10036000014B1BB1A34201D1521EEDD1181B70BD30
:100370004FF000020429C0F0128010F0030C00F0CE
:100380001B80CCF1040CBCF1020F18BF00F8012B4C
:10039000A8BF20F8022BA1EB0C0100F00DB85FEA1A
:1003A000C17C24BF00F8012B00F8012B48BF00F8E6
:1003B000012B70474FF0000200B513469446964655
:1003C000203922BFA0E80C50A0E80C50B1F1200168
:1003D000BFF4F7AF090728BFA0E80C5048BF0CC016
:1003E0005DF804EB890028BF40F8042B08BF704774
:1003F00048BF20F8022B11F0804F18BF00F8012BE6
:10040000704770477047704701694A1C026108785D
:10041000704700B58FB0CDE9013100210591054944
:100420007944CDE9031011466846FFF7E7FE0FB0A7
:1004300000BD0000E5FFFFFF0A6802F8010B0A603B
:10044000704710B5436913B1AFF3008001E0FFF7C7
:1004500009FF012010BD127800F124010A7000226A
:100460004A700122EDE711684FF0FF32E9E7754667
:1004700000F02CF8AE4605006946534620F0070010
:10048000854618B020B5FFF791FEBDE820404FF03B
:1004900000064FF000074FF000084FF0000B21F06E
:1004A0000701AC46ACE8C009ACE8C009ACE8C0093B
:1004B000ACE8C0098D46704710B50446AFF3008024
:1004C0002046BDE81040FFF75DBE000000487047C1
:1004D0004C02002001491820ABBEFEE726000200B6
:1004E0007047FEE7704772B6FEE710B590F821102E
:1004F0000022022905D00421816380F820200120F8
:1005000010BD01680B6823F00E030B6001680B68D7
:1005100023F001030B6090F84030C46B012101FA15
:1005200003F3636080F8211080F82020104610BD8E
:1005300010B590F821100024022903D00421816312
:1005400001243DE001680A6822F00E020A60016899
:100550000A6822F001020A601A4A0168914201D138
:10056000012121E0174A1432914201D110211BE0F0
:10057000144A2832914201D1891515E0114A3C32C2
:10058000914201D189140FE00E4A5032914202D1BA
:100590004FF4803108E00B4A6432914202D14FF4AB
:1005A000801101E04FF08071064A083A5160012144
:1005B00080F82110002180F82010416B01B188479C
:1005C000204610BD0800024070B5044600F0FCF85B
:1005D0000546601C02D004480078044400F0F4F89A
:1005E000401BA042FAD370BD0C0000202DE9F84F4B
:1005F000DFF89C910024A9F1040B23460F2709F191
:10060000040AABF1040EBBE00125A5402A40AA4232
:1006100076D1DFF880C14E68A6EB0C0866452BD07A
:100620000DDC032E34D005DC36B3012E19D0022E9A
:100630002FD11BE0112E16D0122E2AD119E0B8F5B9
:10064000881F19D006DCB8F5803F15D0B8F5801F9B
:100650001FD111E0B8F5001F0ED0B8F5041F18D156
:100660000AE0CB6815E0CB681B1D12E0CB680833AD
:100670000FE0CB680C330CE08B682BB1012B4FF0F3
:10068000080303D0456104E0042302E0056100E0B3
:100690000023FF2A01D8064601E000F104064FEAD4
:1006A000840501D9A5F12005D6F8008007FA05FCDC
:1006B00028EA0C0803FA05F548EA0508C6F80080A0
:1006C0004D68ED005BD5344DAE6946F00106AE6174
:1006D000AD6924F0030605F0010500952F4D06EBEA
:1006E000050CDCF80850A607360F07FA06F825EACD
:1006F0000805DFF8AC80404503D14FF0000810E05A
:100700003DE0DFF8A080404502D14FF0010808E04D
:10071000DFF89480404502D14FF0020801E04FF02D
:10072000030808FA06F848EA0508CCF808804D687E
:10073000D9F80060ED024D4601D5164300E096431E
:100740002E604D68DAF80060AD02554601D51643BB
:1007500000E096432E604D68DBF80060AD035D4617
:1007600001D5164300E096432E604D68DEF8006028
:10077000ED03754601D5164300E096432E60641CD8
:100780000A6832FA04F57FF43FAFBDE8F88F000045
:100790000804014000001110001002400000014058
:1007A00000080140000C014000100140C26821EA2D
:1007B00002030A4043EA0241016170470AB1016144
:1007C00070470904FBE7000001488068704700009B
:1007D0000C00002002488168027811448160704753
:1007E0000C000020074810B5016841F010010160BD
:1007F000032000F075F80F2000F006F800F024F850
:10080000002010BD0020024070B50D4D04464FF48D
:100810007A712878B1FBF0F00A490968B1FBF0F071
:1008200000F0DCFA48B9102C07D200222146501EF5
:1008300000F036F800206C6070BD012070BD000033
:100840000C000020180000200C4808B5816941F018
:1008500001018161816901F001010091C16941F0EB
:100860008051C161C06900F0805000900448416827
:1008700021F0E06141F00071416008BD00100240CC
:1008800000000140002809DB00F01F020121914017
:100890004009800000F1E020C0F80011704700001E
:1008A000F0B40E4B1B680C46C3F30223C3F10705DB
:1008B000042D00D90425191D072901D2002300E0C9
:1008C000DB1E012606FA05F1491E214099409E4093
:1008D000761E16403143F0BC00F0DFBE0CED00E0A8
:1008E000064900F0070208684FF6FF03184040EA87
:1008F0000220034A10430860704700000CED00E03E
:100900000000FA052DE9F0470F46050061D0434E7F
:10091000306800F00700B84209D2306820F00700C4
:1009200038433060306800F00700B84251D1286881
:100930003B4C810712D5400703D5606840F4E06066
:1009400060602878000703D5606840F460506060FC
:100950006068A96820F0F000084360602878C0074C
:1009600028D06868012810D02168022810D0890793
:1009700000292EDA616821F0030101436160FFF76D
:1009800023FF804641F288390DE021688903EFE7B3
:100990008901EDE7FFF718FFA0EB0801494502D9EF
:1009A0000320BDE8F0876068696800F00C00B0EBD8
:1009B000810FEFD1306800F00700B8420BD93068E2
:1009C00020F0070038433060306800F00700B8427C
:1009D00001D00120E5E72878400705D56068E9687F
:1009E00020F4E060084360602878000706D560685E
:1009F000296920F4605040EAC100606000F038F8D6
:100A00006168084AC1F30311515CC8400649086097
:100A100006480068FFF7F8FE0020C2E70020024009
:100A200000100240BE1D0008180000201000002029
:100A30000448054900684968044AC1F30221515C31
:100A4000C84070471800002000100240CE1D00086A
:100A50000448054900684968044AC1F3C221515C51
:100A6000C84070471800002000100240CE1D00084A
:100A70000E4A51680E4801F00C03042B11D0082BCC
:100A80000FD10C48C1F38343C903C05C0AD5516838
:100A9000084AC1F34041921E515C054A5043B0FBE5
:100AA000F1F07047044948437047000000100240CD
:100AB00000127A00AE1D000800093D002DE9F84F34
:100AC000040070D02078C04DC00749D06868C0F3DA
:100AD0008100012807D06868C0F38100022809D18D
:100AE0006868C00306D52868800339D56068002887
:100AF000E7D035E06068B0F5803F0BD010B1B0F5BD
:100B0000A02F11D0286820F480302860286820F4B5
:100B1000802002E0286840F480302860606890B14E
:100B2000FFF752FE06460AE0286840F4802028605D
:100B3000F0E700BFFFF748FE801B642873D82868E1
:100B40008003F7D50CE0FFF73FFE064605E000BF47
:100B5000FFF73AFE801B6428F0D828688003F7D49A
:100B600020789A4E80074FF001094FF0000839D5E0
:100B7000686810F00C0F07D06868C0F38100022885
:100B800009D16868C00306D42868800714D5206995
:100B9000012808D110E02069B0B1C6F80090FFF735
:100BA00013FE074605E00AE1FFF70EFEC01B022810
:100BB000C4D828688007F7D52868616920F0F80054
:100BC00040EAC10028600DE0C6F80080FFF7FCFD98
:100BD000074604E0FFF7F8FDC01B022823D8286869
:100BE0008007F7D4207800072CD57948A169D9B1BE
:100BF000C0F80090FFF7E8FD074604E0FFF7E4FDCA
:100C0000C01B02280FD8686A8007F7D571484FF4D7
:100C1000FA510068B0FBF1F0009000BF0098411E4F
:100C20000091FAD20EE080E0C0F80080FFF7CCFD22
:100C3000074604E0FFF7C8FDC01B022875D8686AA4
:100C40008007F7D42078400760D5E8690027C00006
:100C500008D4E86940F08050E861E869012700F0B5
:100C6000805000905C480168C90513D40168834630
:100C700041F480710160FFF7A7FD824606E000BFE6
:100C8000FFF7A2FDA0EB0A0064284ED8DBF80000B5
:100C9000C005F5D5E06801280AD008B1052813D0B1
:100CA000286A20F001002862286A20F0040002E08F
:100CB000286A40F001002862E06841F2883B98B160
:100CC000FFF782FD82460BE0286A40F004002862AC
:100CD000EEE700BFFFF778FDA0EB0A0159455AD8AF
:100CE000286A8007F6D50CE0FFF76EFD824605E026
:100CF000FFF76AFDA0EB0A0159454CD8286A800726
:100D0000F6D41FB1E86920F08050E861E06988B34B
:100D10006968C1F38101022944D00228C6F86080C5
:100D200004D0FFF751FD044638E034E0FFF74CFDF6
:100D3000074604E0FFF748FDC01B02282BD82868AF
:100D40008001F7D4206AB0F5803F05D16868A168BA
:100D500020F4003008436860D4E90801084369685A
:100D600021F4741108436860C6F86090FFF72CFD09
:100D7000044606E025E000BFFFF726FD001B022821
:100D800009D828688001F7D51BE000BFFFF71CFDDC
:100D9000001B022802D90320BDE8F88F28688001D3
:100DA000F4D40EE00128F7D06868226A00F480319C
:100DB000914204D1616A00F47010884201D0012090
:100DC000EAE70020E8E7000000100240000042428D
:100DD00080044242180000200070004010B5401E00
:100DE000B0F1807F01D3012010BD4FF0E02460619D
:100DF0000F21601700F051FC0020A0610720206146
:100E0000002010BD70477047F8B5016804460868B7
:100E1000CA684B6910F00F0F4FF0000559D003F06E
:100E2000010602F49077374365D0C10705D0D1059C
:100E300003D5616C41F001016164410705D5D90713
:100E400003D0616C41F002016164810705D5D907C7
:100E500003D0616C41F004016164010707D502F021
:100E60002001314303D0616C41F008016164616C81
:100E700000293AD0800604D5900602D5204600F01D
:100E8000F3FA20684069616CC0F38010090700D450
:100E900060B3204600F0C1FA20684069400621D5C1
:100EA0002068143050E8001F21F0400140E8001293
:100EB000002AF5D1E06BA8B16D494163E06BFFF703
:100EC00037FB002811D0E06B416B01B0BDE8F0406A
:100ED000084783060FD593060DD52046BDE8F84098
:100EE00000F0C2BA2046FFF78EFFF8BD2046FFF79C
:100EF0008AFF6564F8BD266B2023012E7CD1C606CF
:100F00007AD5D60678D508684868009048694FF0C9
:100F10000206400640D5E16B086840680004000CFA
:100F2000E8D0A28D8242E5D9E085886920282DD0BD
:100F300020680C3050E8001F21F4807140E8001256
:100F4000002AF5D12068143050E8001F21F001017B
:100F500040E80012002AF5D12068143050E8001F44
:100F600021F0400140E80012002AF5D184F8423017
:100F7000256320680C3050E8001F21F0100140E884
:100F80000012002AF5D1E06BFFF7AFFA6663A08D7F
:100F9000E18D401A81B22AE0A08DE18D401A81B224
:100FA000E08D0028A6D00029A4D022680C3252E897
:100FB000000F20F4907042E80007002FF5D1206860
:100FC000143050E8002F22F0010240E80027002FE3
:100FD000F5D184F84230256320680C3050E8002FAA
:100FE00022F0100240E80023002BF5D16663204672
:100FF000FFF708FFF8BDFFE705062BD5150629D535
:1010000094F841002128F5D1A068B0F5805F01D1A6
:101010002069B0B1206A411C2162216800784860D3
:10102000E08C401E0004000CE084E3D12068C1681D
:1010300021F08001C1602068C16841F04001C160B9
:10104000D8E7206A0088C0F308004860206A801C46
:101050002062E5E74006CDD55006CBD5CA682046CC
:1010600022F04002CA6084F8413000F023F9C1E761
:101070000B14000870B5040004D094F8410000255A
:1010800010B106E0012070BD84F84050204600F009
:1010900023F8242084F841002068C16821F400511D
:1010A000C160204600F042FA2068016921F49041B5
:1010B00001612068416921F02A0141612068C1680D
:1010C00041F40051C1606564202084F8410084F837
:1010D00042006563002070BD70B586B000240094A6
:1010E0000194029403942B4E03682B49022003229F
:1010F0002A4DB34229D18B6943F480438B618B69BC
:1011000003F4804304938B6943F004038B61896982
:10111000039201F0040104910102CDE90010694637
:101120002846FFF763FA2815CDE9000469462846EA
:101130000294FFF75BFA002211462520FFF7B0FB6F
:101140002520FFF79FFB06B070BD154EB342FAD1C4
:10115000CB6943F40033CB61CB6903F400330493D0
:101160008B6943F004038B618969039201F00401E8
:1011700004910421CDE9001069462846FFF736FAAC
:101180000820CDE90004694628460294FFF72EFAAC
:10119000D9E700000038014000100240000801407B
:1011A0000044004090F84230202B01D002207047CC
:1011B00021B11AB10023036300F014BA0120704773
:1011C00030B400680F49884211D10F48818800224D
:1011D0007F2915D2C47881880C4B5D18491C818009
:1011E0002C700A2C05D181885A540121017030BC21
:1011F00070470549012230BCC91C0548FFF7D2BF22
:101200008280F6E700380140000000201C0000202A
:10121000BC0100202DE9F843044690F841009846AF
:1012200016460D46202802D00220BDE8F88385B17D
:101230007EB100206064212084F84100FFF7C4FAE9
:10124000A6848146E684A0682027B0F5805F02D09E
:1012500003E00120E9E7206910B12E4600250EE0E9
:1012600000260CE08021204600F0D7F9A8B9C6B1CD
:1012700016F8010B21684860E08C401EE084E08C89
:101280004B464FF00002CDF800800028EAD14FF025
:101290004001204600F0C1F940B184F841700320BC
:1012A000C3E735F8020BC0F30800E3E784F84170A8
:1012B0000020BAE77047FEE770B586B000241C48EE
:1012C0000094019402940394816941F010018161BA
:1012D000816901F010010491816941F0040181618B
:1012E000816901F004010491816941F00801816183
:1012F0008069104E00F008004FF4805504900022E1
:1013000029463046FFF75AFA6800CDE900046946DD
:1013100009480294FFF76AF901200095CDE901041C
:101320000220039069463046FFF760F906B070BDB1
:1013300000100240000C0140001001400C4810B5A4
:101340000A4901604FF4E1314160002181600C22C3
:10135000C160C0E904128161C161FFF78BFE002802
:1013600003D0BDE81040FFF7BEB810BD0038014003
:10137000BC0100200C4810B50A4901604FF4E1316E
:101380004160002181600C22C160C0E904128161CA
:10139000C161FFF76FFE002803D0BDE81040FFF7E2
:1013A000A2B810BD0044004004020020FEE7FEE7A2
:1013B00070477047FFF70EBA10B590B02821684605
:1013C000FEF7F8FF14210AA8FEF7F4FF02200090B0
:1013D0000120049010200024059007946846FFF730
:1013E0006DFB08B172B6FEE70F20CDE90A040C943C
:1013F0000D9400210AA80E94FFF784FA002801D06A
:1014000072B6FEE710B010BD704710B5406A0021FB
:10141000C185C184FFF7F7FC10BD01680C3151E8AC
:10142000002F22F4907241E80023002BF5D10168CF
:10143000143151E8002F22F0010241E80023002B73
:10144000F5D1016B012909D101680C3151E8002F58
:1014500022F0100241E80023002BF5D1202180F872
:10146000421000210163704708B590F8421022290C
:1014700001D0022008BD82684FF480539A4201D106
:10148000016921B1816A9A421BD04AB10AE002681F
:10149000816A5268C2F308020A80816A891C08E0E6
:1014A000026972B10268526802F07F020A70816AB2
:1014B000491C8162C18D491E0904090CC18503D0F4
:1014C0001BE002685268F1E70168CA6822F0200256
:1014D000CA600168CA6822F48072CA6001684A69F9
:1014E00022F001024A61202180F84210002141636C
:1014F000026B012A03D0FFF763FE002008BD0163E1
:1015000001680C3151E8002F22F0100241E800235D
:10151000002BF5D101680A68D20602D50A6849682D
:101520000091818DFFF76EFCE7E7000070B504467F
:1015300000680169E26821F44051114301612169A9
:10154000A0680843616908432168CA6841F20C63D6
:101550009A430243CA6020684169A26921F440713C
:10156000114341611E492068884202D1FFF770FA99
:1015700001E0FFF75DFA00EBC00101EB00126068CB
:1015800064218000B2FBF0F3B3FBF1F36FF01806B7
:101590007343B2FBF0F5B2FBF0F605EB83053223A3
:1015A00003EB0515B5FBF1F5B6FBF1F605F0F0051B
:1015B00005EB0615B2FBF0F6B2FBF0F0B0FBF1F074
:1015C0006FF01802504306EB800003EB0010B0FBF5
:1015D000F1F0216800F00F002844886070BD000021
:1015E0000038014081628285C28500214164222148
:1015F00080F84210016921B10168CA6842F4807222
:10160000CA6001684A6942F001024A610068C16823
:1016100041F02001C160002070472DE9F843984651
:1016200017460D460446089E24E0701C22D0FFF7A2
:10163000CBF8A0EB0800B0421AD8CEB12068C16840
:10164000490717D5802D15D0402D13D00168C94307
:1016500009070FD401680025406800902046FFF775
:10166000DCFE0820606484F840500120BDE8F88367
:101670000320FBE72068006835EA000004D0002062
:10168000B842D2D00020F1E70120F9E70148FFF786
:10169000BBBB0000BC010020FEE70907090E0028C3
:1016A00004DB00F1E02080F80014704700F00F0028
:1016B00000F1E02080F8141D704770B50C46054617
:1016C000FFF782F8401BA04201D9012070BD002025
:1016D00070BD000070B5074C0025A580802106482C
:1016E000FEF746FE25700122E11CBDE8704003486C
:1016F000FFF758BD000000201C000020BC010020A6
:10170000FFF770F8FFF758FEFFF7D6FDFFF716FE5C
:10171000FFF730FE00F0A4F8074E4FF4FA744FF4D0
:1017200080552046FEF750FF29463046FFF73EF829
:1017300000F0D2FAF5E70000000C014010B5FFF709
:1017400043F80149886010BD0000002070B52D4CA1
:10175000A078022854D0A0784FF0FF3568B3012854
:101760004ED141F28831A068FFF7A7FF58B126A1FA
:101770002B48FEF72DFD82B22B4629492948FFF759
:1017800049FD0020A0702078002839D02649062283
:10179000A1F18600FEF7A1FD234A863A18B323A1E2
:1017A0001F48FEF715FD82B22B461D491D48FFF765
:1017B00031FDBDE87040FFF78DBF1B48801F00F072
:1017C000E3FA194A1EA1921F1548FEF701FD82B2E5
:1017D0002B4613491348FFF71DFD0120A070BDE8FB
:1017E0007040FFF7ABBF1AA10D48FEF7F1FC82B2C3
:1017F0002B460B490B48FFF70DFD0220A070D8E7E0
:1018000070BD00000000002047657420494420742A
:10181000696D656F757420616162620D0A00000078
:10182000BC00002004020020A200002047657420B4
:101830004944206661696C3A2025730D0A00000056
:101840004765742049443A2025730D0A00000000C2
:10185000476574204944204F4B3A2025730D0A00F8
:10186000074810B5002141708170C11C0122054854
:10187000FFF798FCBDE8104003A000F085BA000017
:1018800000000020BC0100202B4154002DE9F04154
:10189000824C6078062871D0607807286ED0607816
:1018A00001250A274FF0FF364FF008080C2865D2B3
:1018B000DFE800F0062A2F676CB982B98E93B4BBBB
:1018C000207800285AD076A17E48FEF781FC82B2AB
:1018D00033467C497C48FFF79DFC7C4A7CA17948D3
:1018E000FEF776FC82B2334676497748FFF792FCE2
:1018F00007227BA17548FEF7F0FC18B17AA000F032
:1019000043FAA7E06570A5E078A000F03DFA022058
:1019100088E02078002831D0052276A16B48FEF7B8
:10192000DCFCD0B1052275A16848FEF7D6FCC8B131
:10193000052274A16548FEF7D0FC00281FD0634A39
:1019400072A16048FEF744FC82B233465D495E48AE
:10195000FFF760FC072060707CE077A15948FEF734
:1019600037FC70E07EA15748FEF732FC82B2334666
:1019700054495548FFF74EFC0320ECE753E083A1A0
:101980000EE089A000F000FA04204BE02078002847
:1019900049D0022286A14D48FEF79FFC50B185A197
:1019A0004848FEF715FC82B2334646494648FFF7E1
:1019B00031FCA7E788A1F3E796A14248FEF708FCAF
:1019C0003346BDE8F04182B23E493F48FFF722BCB2
:1019D00098A000F0D9F9092024E02078002822D02E
:1019E000022273A13948FEF778FC58B193A135481B
:1019F000FEF7EEFB82B2334632493348FFF70AFC6A
:101A00004046A8E796A12F48FEF7E2FB82B2334694
:101A10002C492D48FFF7FEFB06209CE795A000F01F
:101A2000B3F90B206070BDE8F08120780028FAD06F
:101A3000052293A12548FEF750FC244A70B192A1DB
:101A40002048FEF7C5FB82B233461E491E48FFF709
:101A5000E1FB6770BDE8F041FFF73CBE1B4896A173
:101A60008030521DFEF7B4FB184A96A11548FEF7C8
:101A7000AFFB82B2334613491348FFF7CBFB84F820
:101A80000180124A91A180320E48FEF7A1FB82B27A
:101A900033460C490C48FFF7BDFBDBE70000002094
:101AA0005374617274696E67205A69676265652054
:101AB0006E6574776F726B20636865636B2E2E2E74
:101AC0000D0A0000BC000020040200201C000020C1
:101AD00072785F6275666665723A2025730D0A003A
:101AE00041545F4D4F4445002B41540041542B4E0F
:101AF000574B3F004E574B3D310000004E574B3D7A
:101B0000300000004E574B3D320000004572726FAE
:101B1000723A20556E6578706563746564207265ED
:101B200073706F6E736520746F2041542B4E574B4A
:101B30003F3A2025730D0A004E6574776F726B2053
:101B4000737461747573204F4B2E205374617274DB
:101B5000757020636F6D706C6574652E0D0A0000E2
:101B60004E6F7420696E2061206E6574776F726BA2
:101B70002E20417474656D7074696E6720746F20D7
:101B80006A6F696E2E2E2E0D0A0000004E65747766
:101B90006F726B206F66666C696E652C207265646F
:101BA00065746563740D0A0041542B4A4F494E0019
:101BB0004F4B00004572726F723A2041542B4A4FCE
:101BC000494E20636F6D6D616E64206661696C655E
:101BD000642E0D0A000000004A6F696E20636F6D6D
:101BE0006D616E642061636365707465642E205757
:101BF000616974696E6720666F72206E6574776FB5
:101C0000726B20636F6E6E656374696F6E2E2E2E1D
:101C10000D0A00005A6967626565206E6574776F0A
:101C2000726B20696E697420636F6D706C6574658A
:101C30002E0D0A0041542B45584954004572726FCD
:101C4000723A2041542B4558495420636F6D6D61A1
:101C50006E64206661696C65642E0D0A00000000E8
:101C600041542B455849542066696E6973682E0D9E
:101C70000A00000041542B414444523F0000000040
:101C8000414444523D0000004572726F723A204157
:101C9000542B4144445220636F6D6D616E64206625
:101CA00061696C65642E2C2072785F62756666656A
:101CB000723A2025730D0A0047455449443A25736A
:101CC0000000000025730D0A00000000414444524A
:101CD0003A2025730D0A000006484178062901D0F4
:101CE000FFF7D4BD8078022801D0FFF72FBD00F0A8
:101CF00003B800000000002070B5194D28780028B6
:101D00002DD0184A18A11C48FEF762FA82B24FF093
:101D1000FF3319491948FFF77DFA062218A1114827
:101D2000FEF7DBFAB8B90F490E4890310E46FEF7C0
:101D3000C2FA80B10B49441AA41FFFF7FFFCC4EBA1
:101D4000041084002146A868FFF7B7FC0028F9D0EA
:101D5000304600F019F8BDE87040FFF7BBBC70BD1D
:101D6000000000201C00002072785F6275666665C6
:101D7000723A2025730D0A00BC00002004020020E6
:101D80004D444154413A000010B501460548FEF764
:101D90001FFA82B2BDE810404FF0FF3301490248FC
:101DA000FFF738BABC000020BC010020010202038A
:101DB0000405060708090A0B0C0D0E0F1010000091
:101DC00000000000000001020304060708090000EB
:101DD0000000010203040000F81D000800000020BC
:101DE0001C00000028010008141E00081C00002030
:101DF00094080000440100080000000000000000FA
:101E000000000000010000001000000000000000C1
:041E100000127A0042
:04000005080000ED02
:00000001FF
