:020000040800F2
:10000000400A0020A9010008AF1700086F16000879
:10001000AD1700088F080008A51A000800000000AE
:10002000000000000000000000000000B3170008FE
:100030009108000800000000B1170008B51700087B
:10004000C3010008C3010008C3010008C301000880
:10005000C3010008C3010008C3010008C301000870
:10006000C3010008C3010008C3010008C301000860
:10007000C3010008C3010008C3010008C301000850
:10008000C3010008C3010008C3010008C301000840
:10009000C3010008C3010008C3010008C301000830
:1000A000C3010008C3010008C3010008C301000820
:1000B000C3010008C301000800000000C3010008DC
:1000C000C30100080000000000000000C301000898
:1000D00000000000991A0008C30100080000000099
:1000E000C3010008C3010008C301000800F002F8C2
:1000F00000F04BF80AA090E8000C82448344AAF177
:100100000107DA4501D100F040F8AFF2090EBAE874
:100110000F0013F0010F18BFFB1A43F0010318473B
:100120004428000064280000103A24BF78C878C131
:10013000FAD8520724BF30C830C144BF04680C60ED
:10014000704700000023002400250026103A28BF35
:1001500078C1FBD8520728BF30C148BF0B60704739
:10016000642900F0C380732900F079820020704771
:100170001FB500F0B5FA04000020002102F0C6FB14
:10018000401C60601FBD10B510BD00F0FCFA1146A8
:10019000FFF7EEFF01F0CFFC00F028FB03B4FFF700
:1001A000F2FF03BC00F06CFB094880470948004798
:1001B000FEE7FEE7FEE7FEE7FEE7FEE7FEE7FEE717
:1001C000FEE7FEE704480549054A064B7047000074
:1001D00015180008ED00000840040020400A002027
:1001E000400600204006002010B5044600F0A2F9A9
:1001F0000068005DC00602D504F1200010BD204655
:1002000010BD00000FB41CB5084B06AA7B4469461C
:100210000090059800F0F9F904460020694600F0C6
:1002200007FA20461CBC5DF814FB00002104000006
:100230002DE9F0410E460446002020622046E16888
:10024000884730B3252805D0D4E901219047206A9A
:10025000401CF2E7E168204600278847050018D0D7
:10026000A5F14100192802D820354FF40067324625
:10027000294620462760FFF773FF40B1012804D0CC
:10028000F61D26F007060836D8E7361DD6E72846BD
:10029000DAE7206ABDE8F08170B50C460546012A10
:1002A00005D02878800600D5EA69002302E0012302
:1002B00005E05B1C934202D2E05C0028F9D1A869FA
:1002C000E618C01AA861286A184428622846AFF3C5
:1002D000008004E0D5E9012114F8010B9047B442F5
:1002E000F8D32846AFF3008070BD00002DE9F0413F
:1002F0000646002410687529314616A510D0AFF3C4
:100300000080002802DA404213A507E031688A071E
:1003100001D512A502E0490704D511A5012401E089
:10032000AFF3008000210A2206F1240709E0B0FBA8
:10033000F2FCB0FBF2F302FB1C003030785418469C
:10034000491C0028F3D123462A463046BDE8F04137
:1003500000F0FCB8000000002D0000002B000000A1
:100360002000000070B5064600F0ECF80468054671
:1003700030460A22002100F076F92C6070BD40EA78
:100380000103024630B59B0710D14FF0013400E065
:1003900008C208C91D1B9D4315EAC41FF8D013F0FD
:1003A000FF0102F8011B0DD01B0AF8E711F8013B11
:1003B000002B02F8013B05D011F8013B002B02F89D
:1003C000013BF3D130BD10B5431C02E010F8011B16
:1003D00071B18107FAD14FF0013202C88C1A8C43F7
:1003E00014EAC211F9D0C01A0A0603D0C01E10BD0B
:1003F000C01A10BD0A0401D0801E10BD0902FCD035
:10040000401E10BD40EA010370B59B072ED14FF08E
:100410000136042A2AD308C810C99D1B9D43121F08
:1004200015EAC61517D0D8B2E1B2401A50EA0561F4
:1004300010D198B2A1B2401A50EA05410AD123F076
:100440007F4024F07F41401A50EA052102D1180E66
:10045000A0EB146070BDA342DBD018BA21BA884269
:1004600001D9012070BD4FF0FF3070BD0AB90020E6
:1004700070BD10F8013B11F8014B63B1A3420AD1E2
:10048000521E08D010F8013B11F8014B1BB1A342DA
:1004900001D1521EEDD1181B70BD4FF0000204298E
:1004A000C0F0128010F0030C00F01B80CCF1040CA3
:1004B000BCF1020F18BF00F8012BA8BF20F8022BD7
:1004C000A1EB0C0100F00DB85FEAC17C24BF00F87D
:1004D000012B00F8012B48BF00F8012B70474FF0AB
:1004E000000200B5134694469646203922BFA0E884
:1004F0000C50A0E80C50B1F12001BFF4F7AF090790
:1005000028BFA0E80C5048BF0CC05DF804EB890080
:1005100028BF40F8042B08BF704748BF20F8022BC3
:1005200011F0804F18BF00F8012B704770477047DB
:100530007047000010B500F0D3F8001D10BD00BFDB
:10054000CD23000000487047DC0300202DE9F04770
:100550000D4699469246044600F124080168880633
:1005600004D5E06921F01001216000E00120A842DB
:1005700001DD471B00E00027A1697A1902EB0900A1
:10058000081AA0612078C00602D42046AFF300808C
:10059000002608E0D4E901211AF806009047206AF5
:1005A000401C761C20624E45F4DB2078C0060AD53C
:1005B0002046AFF3008006E0D4E9012130209047C7
:1005C000206A401C2062381EA7F10107F4DC07E016
:1005D000D4E9012118F805009047206A401C2062E8
:1005E000281EA5F10105F3DC2046AFF3008020783A
:1005F000000602D50220BDE8F0870120FBE70000DD
:1006000001694A1C02610878704700B58FB0CDE9D6
:1006100001310021059105497944CDE903101146C6
:100620006846FFF705FE0FB000BD0000E5FFFFFFC5
:100630000A6802F8010B0A60704710B5436913B1EC
:10064000AFF3008001E0FFF727FE012010BD127814
:1006500000F124010A7000224A700122EDE71168BE
:100660004FF0FF32E9E72DE9F04791460F4680460B
:100670000446002614F8015B2DB1FFF75BFF00680C
:10068000405DC007F6D12B2D02D02D2D18D0641E51
:100690004A463946204600F027F827B13968A1427A
:1006A00001D1C7F800804FF0020471050BD540421C
:1006B000002803DDFFF746FF0460A007BDE8F087D0
:1006C00046F48066E4E70028F8DAFFF73BFF0460B1
:1006D0006FF00040F2E7000000487047DC030020A4
:1006E00000487047FC0300202DE9F05F8246154664
:1006F0008B4600270AF10104B9460078302801D062
:100700009DB113E014F8010B0127782803D0582875
:1007100001D045B10AE00DB1102D07D1002714F822
:10072000010B102502E0082500E00A250026B0464E
:100730000EE005FB080005FB06F101271FFA80F813
:1007400001EB1046B6F5803F00D3B94614F8010B13
:10075000294600F03DF80028EBDABBF1000F05D088
:100760000FB1641E00E05446CBF80040B9F1000F11
:1007700006D0FFF7E7FE02210160C81EBDE8F09F2A
:1007800048EA0640FAE77546FFF7A6FFAE460500C1
:100790006946534620F00700854618B020B5FFF79C
:1007A00011FDBDE820404FF000064FF000074FF06C
:1007B00000084FF0000B21F00701AC46ACE8C0097F
:1007C000ACE8C009ACE8C009ACE8C0098D46704788
:1007D0003A2800D2303820F02002412A01D3A2F179
:1007E0003700884201D34FF0FF30704710B5044600
:1007F000AFF300802046BDE81040FFF7CFBC0000FB
:100800004FF0013C50F8042B51F8043B9A4221D19F
:10081000A2EB0C03934313EACC1317D150F8042B2B
:1008200051F8043B9A4215D1A2EB0C03934313EA0F
:10083000CC130BD150F8042B51F8043B9A4209D148
:10084000A2EB0C03934313EACC13DBD04FF0000070
:10085000704700BFD01A01BAB1FA81F101F0180156
:1008600022FA01F0CB40C1F12001DBB2C0B2C01AC4
:100870002CFA01F3D11A914311EAC311E6D1704762
:1008800001491820ABBEFEE7260002007047FEE7D4
:10089000704772B6FEE710B590F8211000220229C9
:1008A00005D00421816380F82020012010BD01685B
:1008B0000B6823F00E030B6001680B6823F0010343
:1008C0000B6090F84030C46B012101FA03F36360C0
:1008D00080F8211080F82020104610BD10B590F847
:1008E00021100024022903D00421816301243DE06A
:1008F00001680A6822F00E020A6001680A6822F0A4
:1009000001020A601A4A0168914201D1012121E0E5
:10091000174A1432914201D110211BE0144A2832A7
:10092000914201D1891515E0114A3C32914201D121
:1009300089140FE00E4A5032914202D14FF48031B7
:1009400008E00B4A6432914202D14FF4801101E079
:100950004FF08071064A083A5160012180F8211059
:10096000002180F82010416B01B18847204610BD5E
:100970000800024070B5044600F0F4F80546601C1B
:1009800002D004480078044400F0ECF8401BA04278
:10099000FAD370BD0C0000202DE9F84FDFF89C91D0
:1009A0000024A9F1040B23460F2709F1040AABF137
:1009B000040EBBE00125A5402A40AA4276D1DFF80B
:1009C00080C14E68A6EB0C0866452BD00DDC032ECB
:1009D00034D005DC36B3012E19D0022E2FD11BE006
:1009E000112E16D0122E2AD119E0B8F5881F19D071
:1009F00006DCB8F5803F15D0B8F5801F1FD111E097
:100A0000B8F5001F0ED0B8F5041F18D10AE0CB6866
:100A100015E0CB681B1D12E0CB6808330FE0CB68F4
:100A20000C330CE08B682BB1012B4FF0080303D083
:100A3000456104E0042302E0056100E00023FF2A91
:100A400001D8064601E000F104064FEA840501D909
:100A5000A5F12005D6F8008007FA05FC28EA0C0865
:100A600003FA05F548EA0508C6F800804D68ED0070
:100A70005BD5344DAE6946F00106AE61AD6924F038
:100A8000030605F0010500952F4D06EB050CDCF87B
:100A90000850A607360F07FA06F825EA0805DFF81A
:100AA000AC80404503D14FF0000810E03DE0DFF896
:100AB000A080404502D14FF0010808E0DFF89480A3
:100AC000404502D14FF0020801E04FF0030808FA58
:100AD00006F848EA0508CCF808804D68D9F80060A7
:100AE000ED024D4601D5164300E096432E604D6859
:100AF000DAF80060AD02554601D5164300E0964392
:100B00002E604D68DBF80060AD035D4601D51643ED
:100B100000E096432E604D68DEF80060ED037546F8
:100B200001D5164300E096432E60641C0A6832FA31
:100B300004F57FF43FAFBDE8F88F000008040140E2
:100B400000001110001002400000014000080140A8
:100B5000000C0140001001400AB101617047090416
:100B6000FBE7000001488068704700000C0000208F
:100B70000248816802781144816070470C000020AF
:100B8000074810B5016841F010010160032000F032
:100B900075F80F2000F006F800F024F8002010BDD2
:100BA0000020024070B50D4D04464FF47A7128784C
:100BB000B1FBF0F00A490968B1FBF0F000F0DCFA93
:100BC00048B9102C07D200222146501E00F036F8FA
:100BD00000206C6070BD012070BD00000C00002082
:100BE000180000200C4808B5816941F001018161BD
:100BF000816901F001010091C16941F08051C16139
:100C0000C06900F0805000900448416821F0E06124
:100C100041F00071416008BD001002400000014039
:100C2000002809DB00F01F020121914040098000EB
:100C300000F1E020C0F8001170470000F0B40E4B46
:100C40001B680C46C3F30223C3F10705042D00D92A
:100C50000425191D072901D2002300E0DB1E01260F
:100C600006FA05F1491E214099409E40761E164025
:100C70003143F0BC00F017BF0CED00E0064900F076
:100C8000070208684FF6FF03184040EA0220034AB3
:100C900010430860704700000CED00E00000FA050A
:100CA0002DE9F0470F46050061D0434E306800F053
:100CB0000700B84209D2306820F00700384330609E
:100CC000306800F00700B84251D128683B4C8107DA
:100CD00012D5400703D5606840F4E0606060287872
:100CE000000703D5606840F4605060606068A968E0
:100CF00020F0F000084360602878C00728D06868BA
:100D0000012810D02168022810D0890700292EDA86
:100D1000616821F0030101436160FFF723FF804612
:100D200041F288390DE021688903EFE78901EDE799
:100D3000FFF718FFA0EB0801494502D90320BDE8E1
:100D4000F0876068696800F00C00B0EB810FEFD1AC
:100D5000306800F00700B8420BD9306820F0070077
:100D600038433060306800F00700B84201D00120FD
:100D7000E5E72878400705D56068E96820F4E06079
:100D8000084360602878000706D56068296920F468
:100D9000605040EAC100606000F038F86168084ABD
:100DA000C1F30311515CC840064908600648006859
:100DB000FFF7F8FE0020C2E70020024000100240CA
:100DC0004A290008180000201000002004480549A6
:100DD00000684968044AC1F30221515CC840704769
:100DE00018000020001002405A2900080448054954
:100DF00000684968044AC1F3C221515CC840704789
:100E000018000020001002405A2900080E4A5168BC
:100E10000E4801F00C03042B11D0082B0FD10C4805
:100E2000C1F38343C903C05C0AD55168084AC1F3C2
:100E30004041921E515C054A5043B0FBF1F07047AF
:100E400004494843704700000010024000127A0035
:100E50003A29000800093D002DE9F84F040070D040
:100E60002078C04DC00749D06868C0F381000128D0
:100E700007D06868C0F38100022809D16868C00300
:100E800006D52868800339D560680028E7D035E0AA
:100E90006068B0F5803F0BD010B1B0F5A02F11D035
:100EA000286820F480302860286820F4802002E040
:100EB000286840F480302860606890B1FFF752FEE7
:100EC00006460AE0286840F480202860F0E700BF6A
:100ED000FFF748FE801B642873D828688003F7D585
:100EE0000CE0FFF73FFE064605E000BFFFF73AFEC5
:100EF000801B6428F0D828688003F7D420789A4EA5
:100F000080074FF001094FF0000839D5686810F0EC
:100F10000C0F07D06868C0F38100022809D1686807
:100F2000C00306D42868800714D52069012808D199
:100F300010E02069B0B1C6F80090FFF713FE074635
:100F400005E00AE1FFF70EFEC01B0228C4D828689E
:100F50008007F7D52868616920F0F80040EAC100F1
:100F600028600DE0C6F80080FFF7FCFD074604E0AE
:100F7000FFF7F8FDC01B022823D828688007F7D4A4
:100F8000207800072CD57948A169D9B1C0F8009024
:100F9000FFF7E8FD074604E0FFF7E4FDC01B022869
:100FA0000FD8686A8007F7D571484FF4FA51006886
:100FB000B0FBF1F0009000BF0098411E0091FAD202
:100FC0000EE080E0C0F80080FFF7CCFD074604E0AB
:100FD000FFF7C8FDC01B022875D8686A8007F7D4E0
:100FE0002078400760D5E8690027C00008D4E86988
:100FF00040F08050E861E869012700F080500090DF
:101000005C480168C90513D40168834641F48071C6
:101010000160FFF7A7FD824606E000BFFFF7A2FDD3
:10102000A0EB0A0064284ED8DBF80000C005F5D517
:10103000E06801280AD008B1052813D0286A20F0FA
:1010400001002862286A20F0040002E0286A40F0CB
:1010500001002862E06841F2883B98B1FFF782FD09
:1010600082460BE0286A40F004002862EEE700BFE9
:10107000FFF778FDA0EB0A0159455AD8286A800786
:10108000F6D50CE0FFF76EFD824605E0FFF76AFD3E
:10109000A0EB0A0159454CD8286A8007F6D41FB145
:1010A000E86920F08050E861E06988B36968C1F3BD
:1010B0008101022944D00228C6F8608004D0FFF7DD
:1010C00051FD044638E034E0FFF74CFD074604E0EC
:1010D000FFF748FDC01B02282BD828688001F7D4F1
:1010E000206AB0F5803F05D16868A16820F400301F
:1010F00008436860D4E908010843696821F4741161
:1011000008436860C6F86090FFF72CFD044606E0CF
:1011100025E000BFFFF726FD001B022809D828683C
:101120008001F7D51BE000BFFFF71CFD001B022864
:1011300002D90320BDE8F88F28688001F4D40EE0BE
:101140000128F7D06868226A00F48031914204D106
:10115000616A00F47010884201D00120EAE70020A3
:10116000E8E70000001002400000424280044242D2
:10117000180000200070004010B5401EB0F1807FC4
:1011800001D3012010BD4FF0E02460610F216017F2
:1011900000F089FC0020A06107202061002010BD24
:1011A00070477047F8B5016804460868CA684B691B
:1011B00010F00F0F4FF0000559D003F0010602F4B4
:1011C0009077374365D0C10705D0D10503D5616C51
:1011D00041F001016164410705D5D90703D0616C75
:1011E00041F002016164810705D5D90703D0616C24
:1011F00041F004016164010707D502F02001314389
:1012000003D0616C41F008016164616C00293AD03F
:10121000800604D5900602D5204600F02BFB2068FE
:101220004069616CC0F38010090700D460B32046A8
:1012300000F0F9FA20684069400621D52068143092
:1012400050E8001F21F0400140E80012002AF5D1CB
:10125000E06BA8B16D494163E06BFFF73FFB0028ED
:1012600011D0E06B416B01B0BDE8F0400847830648
:101270000FD593060DD52046BDE8F84000F0FABA28
:101280002046FFF78EFFF8BD2046FFF78AFF656412
:10129000F8BD266B2023012E7CD1C6067AD5D60652
:1012A00078D508684868009048694FF00206400603
:1012B00040D5E16B086840680004000CE8D0A28DBE
:1012C0008242E5D9E085886920282DD020680C303D
:1012D00050E8001F21F4807140E80012002AF5D187
:1012E0002068143050E8001F21F0010140E800128E
:1012F000002AF5D12068143050E8001F21F0400189
:1013000040E80012002AF5D184F8423025632068B5
:101310000C3050E8001F21F0100140E80012002AB4
:10132000F5D1E06BFFF7B7FA6663A08DE18D401A47
:1013300081B22AE0A08DE18D401A81B2E08D0028B3
:10134000A6D00029A4D022680C3252E8000F20F465
:10135000907042E80007002FF5D12068143050E863
:10136000002F22F0010240E80027002FF5D184F879
:101370004230256320680C3050E8002F22F0100224
:1013800040E80023002BF5D166632046FFF708FFF5
:10139000F8BDFFE705062BD5150629D594F84100C1
:1013A0002128F5D1A068B0F5805F01D12069B0B1E6
:1013B000206A411C2162216800784860E08C401E50
:1013C0000004000CE084E3D12068C16821F08001B2
:1013D000C1602068C16841F04001C160D8E7206A5F
:1013E0000088C0F308004860206A801C2062E5E79E
:1013F0004006CDD55006CBD5CA68204622F0400223
:10140000CA6084F8413000F031F9C1E717180008CC
:1014100070B5040004D094F84100002510B106E036
:10142000012070BD84F84050204600F023F82420AD
:1014300084F841002068C16821F40051C160204651
:1014400000F07AFA2068016921F490410161206876
:10145000416921F02A0141612068C16841F40051CD
:10146000C1606564202084F8410084F8420065630F
:10147000002070BD30B585B0002400940194029422
:1014800003942F4D03682F4802210322AB4231D130
:10149000836943F480438361836903F48043049345
:1014A000836943F0080383618069274D00F00800D9
:1014B00004904020CDE90001039269462846FFF7D9
:1014C0006BFA8020CDE90004694628460294FFF7B4
:1014D00063FA1E48416841F0E06141F00401416057
:1014E000002211462520FFF7A9FB2520FFF798FBD6
:1014F00005B030BD164DAB42FAD1C36943F4003399
:10150000C361C36903F400330493836943F00403A4
:10151000836180690F4D00F0040004900420CDE940
:101520000001039269462846FFF736FA0820CDE904
:101530000004694628460294FFF72EFAD8E7000017
:101540000038014000100240000C01400000014042
:10155000004400400008014090F84230202B01D0A8
:101560000220704721B11AB10023036300F040BA92
:101570000120704730B400681049884212D11048E9
:1015800081880022B1F5FF7F15D8C47881880D4B82
:101590005D18491C81802C700A2C05D181885A5411
:1015A0000121017030BC70470549012230BCC91CC3
:1015B0000548FFF7D1BF8280F6E700000038014000
:1015C000000000201C0000204C0300202DE9F843FF
:1015D000044690F84100984616460D46202802D051
:1015E0000220BDE8F88385B17EB10020606421202F
:1015F00084F84100FFF7B6FAA6848146E684A06825
:101600002027B0F5805F02D003E00120E9E72069E0
:1016100010B12E4600250EE000260CE08021204669
:1016200000F001FAA8B9C6B116F8010B21684860AC
:10163000E08C401EE084E08C4B464FF00002CDF879
:1016400000800028EAD14FF04001204600F0EBF97D
:1016500040B184F841700320C3E735F8020BC0F3B2
:101660000800E3E784F841700020BAE77047FEE71E
:101670002DE9F04786B000262C4800960196029688
:101680000396816941F010018161816901F01001C7
:101690000491816941F004018161816901F00401D3
:1016A0000491816941F0080181618069DFF88080DF
:1016B00000F008004FF400540490002221464046F8
:1016C000FFF74AFADFF86C90002203214846FFF743
:1016D00043FADFF864A04FF4905700223946504691
:1016E000FFF73AFA01258DE870000224694640466A
:1016F0000394FFF751F9CDE9026400956946484625
:101700000195FFF749F9CDE900450294694648463D
:101710000394FFF741F9CDE90264CDE9007569460C
:101720005046FFF739F906B0BDE8F08700100240D7
:101730000010014000080140000C01400C4810B5A9
:101740000A4901604FF4E1314160002181600C22BF
:10175000C160C0E904128161C161FFF759FE002830
:1017600003D0BDE81040FFF794B810BD0038014029
:101770004C0300200C4810B50A4901604FF4E131D8
:101780004160002181600C22C160C0E904128161C6
:10179000C161FFF73DFE002803D0BDE81040FFF710
:1017A00078B810BD0044004094030020FEE7FEE737
:1017B00070477047FFF7DCB930B58FB02821684615
:1017C000FEF78DFE14210AA8FEF789FE02250120EE
:1017D000049000951020059000244FF46010CDE98E
:1017E000084007956846FFF737FB08B172B6FEE779
:1017F0000F20CDE90A054FF48060CDE90C400221AD
:101800000AA80E94FFF74CFA002801D072B6FEE742
:101810000FB030BD704710B5406A0021C185C1844A
:10182000FFF7BFFC10BD01680C3151E8002F22F416
:10183000907241E80023002BF5D10168143151E882
:10184000002F22F0010241E80023002BF5D1016BAB
:10185000012909D101680C3151E8002F22F0100252
:1018600041E80023002BF5D1202180F8421000210F
:101870000163704708B590F84210222901D0022078
:1018800008BD82684FF480539A4201D1016921B1A9
:10189000816A9A421BD04AB10AE00268816A5268A2
:1018A000C2F308020A80816A891C08E0026972B1E9
:1018B0000268526802F07F020A70816A491C8162E4
:1018C000C18D491E0904090CC18503D01BE00268C3
:1018D0005268F1E70168CA6822F02002CA60016814
:1018E000CA6822F48072CA6001684A6922F0010263
:1018F0004A61202180F8421000214163026B012AD5
:1019000003D0FFF737FE002008BD016301680C31EA
:1019100051E8002F22F0100241E80023002BF5D1FE
:1019200001680A68D20602D50A6849680091818D6B
:10193000FFF736FCE7E7000070B504460068016970
:10194000E26821F44051114301612169A068084314
:10195000616908432168CA6841F20C639A430243F3
:10196000CA6020684169A26921F440711143416154
:101970001E492068884202D1FFF738FA01E0FFF7DC
:1019800025FA00EBC00101EB0012606864218000C1
:10199000B2FBF0F3B3FBF1F36FF018067343B2FB45
:1019A000F0F5B2FBF0F605EB8305322303EB0515EA
:1019B000B5FBF1F5B6FBF1F605F0F00505EB061504
:1019C000B2FBF0F6B2FBF0F0B0FBF1F06FF01802F2
:1019D000504306EB800003EB0010B0FBF1F02168F0
:1019E00000F00F002844886070BD000000380140FE
:1019F00081628285C28500214164222180F84210E3
:101A0000016921B10168CA6842F48072CA60016844
:101A10004A6942F001024A610068C16841F0200150
:101A2000C160002070472DE9F843984617460D46DF
:101A30000446089E24E0701C22D0FFF793F8A0EB28
:101A40000800B0421AD8CEB12068C168490717D53E
:101A5000802D15D0402D13D00168C94309070FD43C
:101A600001680025406800902046FFF7DCFE082052
:101A7000606484F840500120BDE8F8830320FBE750
:101A80002068006835EA000004D00020B842D2D0B7
:101A90000020F1E70120F9E70148FFF783BB0000D0
:101AA0004C030020FEE70907090E002804DB00F1C3
:101AB000E02080F80014704700F00F0000F1E020F3
:101AC00080F8141D704770B50C460546FFF74AF8BC
:101AD000401BA04201D9012070BD002070BD000054
:101AE00070B5084C0025A5804FF400710648FEF73C
:101AF000D4FC25700122E11CBDE870400348FFF7CB
:101B00002BBD0000000000201C0000204C03002022
:101B100010B5FEF769FBC0B2A0F13001092901D868
:101B2000084610BDA0F16101052901D8573810BD44
:101B30004FF0FF3010BDFFF723F8FFF73DFEFFF732
:101B400097FDFFF7FBFDFFF715FE00F0B3F800F07F
:101B5000F1FDFCE710B5FFF705F80149886010BDFD
:101B6000000000202DE9F041394CA07802286DD00A
:101B7000A0784FF0FF3570B3012867D141F288316A
:101B8000A068FFF7A0FF002650B132A13848FEF749
:101B900039FB82B22B4636493648FFF717FDA6704F
:101BA0002078002852D0344F0622B91DA7F50070C6
:101BB000FEF728FCA7F5007208B330A12C48FEF709
:101BC00021FB82B22B462A492A48FFF7FFFCBDE8D9
:101BD000F041FFF785BF284800F086FE264A2CA179
:101BE0002348FEF70FFB82B22B4621492148FFF71D
:101BF000EDFC0120A070BDE8F041FFF7ABBF28A1CC
:101C00001B48FEF7FFFA82B22B4619491948FFF725
:101C1000DDFC2748B0F807003882BE741649103141
:101C20000E4601F11000FEF7AAFB0A2087F82200F9
:101C3000324618A10E48FEF7E5FA82B22B460C494F
:101C40000C48FFF7C3FC0220A070C0E7BDE8F0819C
:101C5000000000204765742049442074696D656F59
:101C600075742C207265747279696E670D0A0000B4
:101C70004C020020940300201C02002047657420C1
:101C80004944206661696C3A2025730D0A00000002
:101C90004765742049443A2025730D0A000000006E
:101CA000476574204944204F4B3A2025730D0A00A4
:101CB0001C00002010B500224FF400711648FEF7FA
:101CC0004BFF164C002201212046FEF745FF012262
:101CD00011462046FEF740FF1149002048708870E9
:101CE0000122C91C0F48FFF737FC4FF4FA60FEF7DA
:101CF00041FE0DA000F0F8FDFFF72CFF0BA11248EC
:101D0000FEF780FA82B2BDE810404FF0FF330E4973
:101D10000E48FFF75BBC0000000C014000080140CA
:101D2000000000204C0300202B41540053746172CA
:101D300074696E672E2E2E20303831392076657208
:101D400073696F6E0D0A00004C020020940300209E
:101D50002DE9F05FD74C607806287DD060780728A1
:101D6000FBD0607801251227AE1E41F288314FF07A
:101D700008084FF00A0B4FF00C094FF00E0A142818
:101D80006AD2DFE800F00A7279CED569FD69FCFB02
:101D9000FAF9F8F7F6F5F4F3434AA068FFF793FE73
:101DA00070B1C5A1CF48FEF72DFA82B23346CD49B6
:101DB000CD48FFF70BFCCDA000F096FDFFF7CAFE63
:101DC00020780028C9D0CAA1C648FEF71BFA82B203
:101DD0003346C449C448FFF7F9FBCE4ACEA1C148F7
:101DE000FEF710FA82B23346BE49BF48FFF7EEFB5A
:101DF0000722CDA1C748FEF705FB28B1BBA000F024
:101E000073FDFFF7A7FE43E1677041E1C8A000F052
:101E10006BFDFFF79FFE132089E3A068FFF753FED9
:101E200050B1C5A1AF48FEF7EDF982B23346AD49D6
:101E3000AD48FFF7CBFB6770207800288DD00422D7
:101E4000C9A1B448FEF7DEFA60B1C9A1A548FEF702
:101E5000D9F982B2334600E06AE3A249A248FFF70B
:101E6000B5FBD1E7AB4ACDA12EE0D3A000F03CFDFD
:101E7000FFF770FE02205AE38846A068FFF723FEB2
:101E800050B1CFA19748FEF7BDF982B233469549CC
:101E90009548FFF79BFB65702078002892D00522BB
:101EA000D3A19C48FEF7AEFAC8B10522D2A1994849
:101EB000FEF7A8FAC0B10522D1A19648FEF7A2FA12
:101EC000002820D0934AD0A18648FEF79BF982B221
:101ED000334684498448FFF779FB6570D8E0D5A183
:101EE0008048FEF78FF9AEE0DCA17E48FEF78AF964
:101EF00082B233467B497C48FFF768FB1020607054
:101F00004FF47A700AE0E0A17648FEF77BF982B2DE
:101F1000334674497448FFF759FB4046FEF72AFDE3
:101F2000B6E0E0A000F0E0FCFFF714FE0420FEE2C3
:101F3000A068FFF7C8FD58B1DCA16A48FEF762F956
:101F400082B2334667496848FFF740FB0320607060
:101F500020780028A2D00222DFA16E48FEF752FAB4
:101F600078B1DEA15F48FEF74DF9B0E7E2E2D8E2D2
:101F7000A6E29EE297E08FE047E03FE016E00EE049
:101F800001E0DFA1EEE7EDA15648FEF73BF933464D
:101F9000BDE8F05F82B253495348FFF717BBEFA08B
:101FA00000F0A2FCFFF7D6FD0920C0E2A068FFF711
:101FB0008AFD58B1EBA14B48FEF724F982B23346B3
:101FC00048494948FFF702FB84F80180207800283F
:101FD000C0D00222C0A14F48FEF714FA08B1ECA10C
:101FE00094E2F4A13F48FEF70DF982B233463D4931
:101FF0003D48FFF7EBFA0620607049E0F2A000F0E0
:1020000073FCFFF7A7FD0B2091E2A068FFF75BFDD3
:1020100058B1F0A13348FEF7F5F882B233463149A2
:102020003148FFF7D3FA84F801B02078002891D026
:102030000522F2A13748FEF7E5F9364A58B1F1A179
:102040002848FEF7DFF882B2334626492648FFF7D4
:10205000BDFA5846D0E7F7A1F948521DFEF7D2F86D
:102060002C4AF8A11F48FEF7CDF882B233461D492D
:102070001D48FFF7ABFA84F80190F14AF3A1194823
:10208000FEF7C0F882B2334616491748FFF79EFAAA
:10209000BDE8F05FFFF724BDEFA000F025FCFFF7DF
:1020A00059FD0D2043E2A068FFF70DFD00B1DDE111
:1020B000E8E100000000002054696D656F75742030
:1020C00077616974696E6720666F722041545F4D55
:1020D0004F44452C207265747279696E672E2E2EDE
:1020E0000D0A00004C020020940300202B415400F4
:1020F0005374617274696E67205A696762656520FE
:102100006E6574776F726B20636865636B2E2E2E1D
:102110000D0A00001C00002072785F62756666651B
:10212000723A2025730D0A0041545F4D4F4445001B
:1021300041542B4445563F0054696D656F757420BA
:1021400077616974696E6720666F72204445562016
:102150007374617475732C207265747279696E671B
:102160002E2E2E0D0A0000004445563D00000000B2
:10217000446576696365207479706520646574656B
:102180006374206E6F74204F4B2C207265747279CB
:10219000696E672E2E2E0D0A0000000044657669D8
:1021A0006365207479706520646574656374204F7D
:1021B0004B3A2025730D0A0041542B4E574B3F00DC
:1021C00054696D656F75742077616974696E6720F5
:1021D000666F72204E574B207374617475732C2098
:1021E0007265747279696E672E2E2E0D0A000000DA
:1021F0004E574B3D310000004E574B3D3000000024
:102200004E574B3D320000004572726F723A2055B6
:102210006E657870656374656420726573706F6E47
:10222000736520746F2041542B4E574B3F3A202545
:10223000730D0A004E6574776F726B20737461744E
:102240007573204F4B2E2053746172747570206328
:102250006F6D706C6574652E0D0A00004E6F7420F2
:10226000696E2061206E6574776F726B2E204174E9
:1022700074656D7074696E6720746F206A6F696E23
:102280002E2E2E0D0A0000004E6574776F726B20A3
:102290006F66666C696E652C207265646574656333
:1022A000740D0A0041542B4A4F494E0054696D6524
:1022B0006F75742077616974696E6720666F72202C
:1022C0004A4F494E204F4B2C207265747279696ECB
:1022D000672E2E2E0D0A00004F4B00004572726FC4
:1022E000723A2041542B4A4F494E20636F6D6D6105
:1022F0006E64206661696C65642E0D0A0000000042
:102300004A6F696E20636F6D6D616E6420616363F7
:1023100065707465642E2057616974696E67206604
:102320006F72206E6574776F726B20636F6E6E656F
:102330006374696F6E2E2E2E0D0A00005A69676253
:102340006565206E6574776F726B20696E697420A5
:10235000636F6D706C6574652E0D0A0041542B45DA
:102360005849540054696D656F75742077616974BC
:10237000696E6720666F722045584954204F4B2C78
:10238000207265747279696E672E2E2E0D0A000018
:102390004572726F723A2041542B4558495420635C
:1023A0006F6D6D616E64206661696C65642E0D0AE7
:1023B0000000000041542B455849542066696E695D
:1023C00073682E0D0A00000041542B414444523FD3
:1023D0000000000054696D656F7574207761697441
:1023E000696E6720666F7220414444522C207265EA
:1023F000747279696E672E2E2E0D0A004144445284
:102400003D0000004572726F723A2041542B4144E6
:10241000445220636F6D6D616E64206661696C6506
:10242000642E2C2072785F6275666665723A20258C
:10243000730D0A0047455449443A25730D0A0000BC
:102440001C02002025730D0A000000004144445284
:102450003A2025730D0A000041542B445354414443
:1024600044523D30783030303000000050A15A489E
:10247000FDF7C8FE82B2334657495848FFF7A6F821
:1024800084F801902078002852D00E2254A1584898
:10249000FDF7B8FF58B157A14F48FDF7B3FE82B220
:1024A00033464D494D48FFF791F84846A4E55AA1F7
:1024B00020E061A000F018FAFFF74CFB0F2036E097
:1024C000A068FFF700FB58B15FA14348FDF79AFEF3
:1024D00082B2334640494148FFF778F884F801A0BA
:1024E0002078002824D00A2261A14148FDF78AFF04
:1024F00058B162A13848FDF785FE82B233463649AD
:102500003648FFF763F8504676E565A13248FDF797
:1025100079FE82B2334630493048FFF757F84046DB
:102520006AE567A000F0E0F9FFF714FB1120607086
:10253000BDE8F09FA068FFF7C6FA58B163A126482E
:10254000FDF760FE82B2334623492448FFF73EF888
:102550001020607020780028EAD0052264A1244869
:10256000FDF750FFB8B1224AAFF254411A48FDF7C7
:1025700049FE82B2334618491848FFF727F85EA192
:102580001548FDF73FFE82B2334613491348FFF763
:102590001DF8102030E560A10F48FDF733FE82B230
:1025A00033460D490D48FFF711F8032024E50000DC
:1025B00054696D656F75742073657474696E6720F6
:1025C000445354414444522C207265747279696EAC
:1025D000672E2E2E0D0A00004C02002094030020CE
:1025E000445354414444523D307830303030000040
:1025F0001C0000204572726F723A2041542B4453E4
:10260000544144445220636F6D6D616E6420666175
:10261000696C65642E0D0A0041542B4453544144A7
:10262000445220636F6D6D616E64206163636570F9
:102630007465642E0D0A000041542B4453544550D8
:102640003D3078303100000054696D656F7574203D
:1026500073657474696E672044535445502C20721E
:1026600065747279696E672E2E2E0D0A00000000C7
:1026700044535445503D3078303100004572726FFC
:10268000723A2041542B445354455020636F6D6D72
:10269000616E64206661696C65642E0D0A0000003D
:1026A00041542B445354455020636F6D6D616E64EB
:1026B0002061636365707465642E0D0A000000007C
:1026C00041542B43483D31310000000054696D6591
:1026D0006F75742073657474696E672043482C208D
:1026E0007265747279696E672E2E2E0D0A000000D5
:1026F00043483D31310000004572726F723A20410B
:10270000542B434820636F6D6D616E642066616970
:102710006C65642E0D0A000041542B434820636F02
:102720006D6D616E642061636365707465642E0D08
:102730000A00000006484178062901D0FFF708BBCF
:102740008078022801D0FFF70DBA00F003B800002E
:10275000000000202DE9F04F4D4D91B02878002861
:102760007ED04C4A4CA15048FDF74CFD82B24FF050
:10277000FF3B5B464C494D48FEF728FF05224CA124
:102780004448FDF73FFE002879D1DFF80881EA468A
:1027900008F105084FF040094046FDF714FE0746D2
:1027A000002449465046FDF778FE002617E04C45C8
:1027B0001ADA18F80600FFF7ABF9109008EB0600DC
:1027C0004078FFF7A5F91099491C07D0411C05D0A6
:1027D000109940EA01100AF80400641CB61CBE42BD
:1027E00002DA701CB842E2DB002C48DD3248FDF70B
:1027F000B9FDE1006A46002841DD88423FDC411E08
:10280000CB1701EB5374E31024F00704D35C091BCE
:10281000CB40D90733D0002401210EE04B1EDE1738
:1028200003EB5673DF104E1E23F00703F31AD65D39
:10283000DE40F30700D0641C491C8142EEDB611CC2
:102840001DD0024623461DA11748FDF7DBFC82B2CE
:102850005B4615491548FEF7B9FEFFF77BF901E025
:1028600012E00CE004EB840044002146A868FFF766
:102870002AF90028F9D01048103000F035F811B0CE
:10288000BDE8F04FFFF72CB911B0BDE8F08F0000A4
:10289000000000201C00002072785F62756666658B
:1028A000723A2025730D0A004C0200209403002088
:1028B0004D424D503A0000002C0200204944202592
:1028C000642069732070726573656E742E20526582
:1028D00073706F6E64696E6720696E20736C6F74BD
:1028E0002025642E0D0A000010B501460548FDF7AD
:1028F00089FC82B2BDE810404FF0FF330149024825
:10290000FEF764BE4C0200204C03002010B50029E5
:102910000AD00878002807D005487844FDF770FFF2
:10292000002801D0002010BD0248784410BD0000EE
:102930006A000000620000000102020304050607AD
:1029400008090A0B0C0D0E0F10100000000000000B
:10295000000001020304060708090000000001024C
:1029600003040000942A0008000000201C0000005E
:1029700028010008B02A00081C000020240A0000DA
:10298000440100081001000043000000F8FFFFFFB1
:102990000040404040404040404041414141414072
:1029A0004040404040404040404040404040404027
:1029B00040050202020202020202020202020202B6
:1029C00002202020202020202020200202020202BB
:1029D0000202909090909090101010101010101013
:1029E000101010101010101010101010020202021F
:1029F0000202888888888888080808080808080863
:102A0000080808080808080808080808020202025E
:102A10004000000000000000000000000000000076
:102A200000000000000000000000000000000000A6
:102A30000000000000000000000000000000000096
:102A40000000000000000000000000000000000086
:102A50000000000000000000000000000000000076
:102A60000000000000000000000000000000000066
:102A70000000000000000000000000000000000056
:102A80000000000000000000000000000000000046
:102A90000000000000000000000000000000000036
:102AA00001000000100000000000000000127A0089
:04000005080000ED02
:00000001FF
