:020000040800F2
:10000000C0080020990100087B1500083B14000877
:10001000791500085F06000871180008000000004C
:100020000000000000000000000000007F15000834
:1000300061060008000000007D1500088115000819
:10004000B3010008B3010008B3010008B3010008C0
:10005000B3010008B3010008B3010008B3010008B0
:10006000B3010008B3010008B3010008B3010008A0
:10007000B3010008B3010008B3010008B301000890
:10008000B3010008B3010008B3010008B301000880
:10009000B3010008B3010008B3010008B301000870
:1000A000B3010008B3010008B3010008B301000860
:1000B000B3010008B301000800000000B30100080C
:1000C000B30100080000000000000000B3010008B8
:1000D0000000000065180008B301000800000000DF
:1000E000B3010008B3010008B301000800F002F8F2
:1000F00000F042F80AA090E8000C82448344AAF180
:100100000107DA4501D100F037F8AFF2090EBAE87D
:100110000F0013F0010F18BFFB1A43F0010318473B
:100120001C2100003C210000103A24BF78C878C18F
:10013000FAD8520724BF30C830C144BF04680C60ED
:10014000704700000023002400250026103A28BF35
:1001500078C1FBD8520728BF30C148BF0B60704739
:10016000642900F0AD80732900F03B8200207047C5
:100170001FB51FBD10B510BD00F037FA1146FFF7CF
:10018000F7FF01F0A9FB00F055FA03B4FFF7F2FF07
:1001900003BC00F05DFA00000948804709480047A9
:1001A000FEE7FEE7FEE7FEE7FEE7FEE7FEE7FEE727
:1001B000FEE7FEE704480549054A064B7047000084
:1001C000E1150008ED000008C0020020C008002072
:1001D000C0040020C00400200FB41CB5084B06AAC0
:1001E0007B4469460090059800F0D1F90446002050
:1001F000694600F0DFF920461CBC5DF814FB0000E6
:10020000D10300002DE9F0410E4604460020206293
:100210002046E168884730B3252805D0D4E901217C
:100220009047206A401CF2E7E16820460027884793
:10023000050018D0A5F14100192802D820354FF447
:1002400000673246294620462760FFF789FF40B104
:10025000012804D0F61D26F007060836D8E7361D1B
:10026000D6E72846DAE7206ABDE8F08170B50C468B
:100270000546012A05D02878800600D5EA690023C2
:1002800002E0012305E05B1C934202D2E05C0028FF
:10029000F9D1A869E618C01AA861286A184428622A
:1002A0002846AFF3008004E0D5E9012114F8010BE2
:1002B0009047B442F8D32846AFF3008070BD0000E9
:1002C0002DE9F0410646002410687529314616A52F
:1002D00010D0AFF30080002802DA404213A507E0F7
:1002E00031688A0701D512A502E0490704D511A596
:1002F000012401E0AFF3008000210A2206F1240767
:1003000009E0B0FBF2FCB0FBF2F302FB1C00303062
:1003100078541846491C0028F3D123462A46304613
:10032000BDE8F04100F0D5B8000000002D0000004D
:100330002B0000002000000030B505460B462A4681
:1003400013F8014B12F8010B08B1A042F8D01CB110
:10035000002802D06D1CF1E7284630BD40EA0103B9
:10036000024630B59B0710D14FF0013400E008C2BF
:1003700008C91D1B9D4315EAC41FF8D013F0FF01E7
:1003800002F8011B0DD01B0AF8E711F8013B002B06
:1003900002F8013B05D011F8013B002B02F8013BAC
:1003A000F3D130BD40EA010370B59B072ED14FF069
:1003B0000136042A2AD308C810C99D1B9D43121F69
:1003C00015EAC61517D0D8B2E1B2401A50EA056155
:1003D00010D198B2A1B2401A50EA05410AD123F0D7
:1003E0007F4024F07F41401A50EA052102D1180EC7
:1003F000A0EB146070BDA342DBD018BA21BA8842CA
:1004000001D9012070BD4FF0FF3070BD0AB9002046
:1004100070BD10F8013B11F8014B63B1A3420AD142
:10042000521E08D010F8013B11F8014B1BB1A3423A
:1004300001D1521EEDD1181B70BD4FF000020429EE
:10044000C0F0128010F0030C00F01B80CCF1040C03
:10045000BCF1020F18BF00F8012BA8BF20F8022B37
:10046000A1EB0C0100F00DB85FEAC17C24BF00F8DD
:10047000012B00F8012B48BF00F8012B70474FF00B
:10048000000200B5134694469646203922BFA0E8E4
:100490000C50A0E80C50B1F12001BFF4F7AF0907F0
:1004A00028BFA0E80C5048BF0CC05DF804EB8900E1
:1004B00028BF40F8042B08BF704748BF20F8022B24
:1004C00011F0804F18BF00F8012B7047704770473C
:1004D00070472DE9F0470D4699469246044600F1D3
:1004E00024080168880604D5E06921F01001216024
:1004F00000E00120A84201DD471B00E00027A169C0
:100500007A1902EB0900081AA0612078C00602D40B
:100510002046AFF30080002608E0D4E901211AF854
:1005200006009047206A401C761C20624E45F4DB92
:100530002078C0060AD52046AFF3008006E0D4E953
:10054000012130209047206A401C2062381EA7F10C
:100550000107F4DC07E0D4E9012118F80500904711
:10056000206A401C2062281EA5F10105F3DC20460C
:10057000AFF300802078000602D50220BDE8F087A6
:100580000120FBE701694A1C02610878704700B549
:100590008FB0CDE901310021059105497944CDE9BC
:1005A000031011466846FFF72DFE0FB000BD000096
:1005B000E5FFFFFF0A6802F8010B0A60704710B5FB
:1005C000436913B1AFF3008001E0FFF74FFE012054
:1005D00010BD127800F124010A7000224A70012235
:1005E000EDE711684FF0FF32E9E7754600F02CF8AF
:1005F000AE4605006946534620F00700854618B010
:1006000020B5FFF7D7FDBDE820404FF000064FF0C2
:1006100000074FF000084FF0000B21F00701AC4637
:10062000ACE8C009ACE8C009ACE8C009ACE8C00956
:100630008D46704710B50446AFF300802046BDE8F4
:100640001040FFF7A2BD0000004870475C02002088
:1006500001491820ABBEFEE7260002007047FEE706
:10066000704772B6FEE710B590F8211000220229FB
:1006700005D00421816380F82020012010BD01688D
:100680000B6823F00E030B6001680B6823F0010375
:100690000B6090F84030C46B012101FA03F36360F2
:1006A00080F8211080F82020104610BD10B590F879
:1006B00021100024022903D00421816301243DE09C
:1006C00001680A6822F00E020A6001680A6822F0D6
:1006D00001020A601A4A0168914201D1012121E018
:1006E000174A1432914201D110211BE0144A2832DA
:1006F000914201D1891515E0114A3C32914201D154
:1007000089140FE00E4A5032914202D14FF48031E9
:1007100008E00B4A6432914202D14FF4801101E0AB
:100720004FF08071064A083A5160012180F821108B
:10073000002180F82010416B01B18847204610BD90
:100740000800024070B5044600F0F4F80546601C4D
:1007500002D004480078044400F0ECF8401BA042AA
:10076000FAD370BD0C0000202DE9F84FDFF89C9102
:100770000024A9F1040B23460F2709F1040AABF169
:10078000040EBBE00125A5402A40AA4276D1DFF83D
:1007900080C14E68A6EB0C0866452BD00DDC032EFD
:1007A00034D005DC36B3012E19D0022E2FD11BE038
:1007B000112E16D0122E2AD119E0B8F5881F19D0A3
:1007C00006DCB8F5803F15D0B8F5801F1FD111E0C9
:1007D000B8F5001F0ED0B8F5041F18D10AE0CB6899
:1007E00015E0CB681B1D12E0CB6808330FE0CB6827
:1007F0000C330CE08B682BB1012B4FF0080303D0B6
:10080000456104E0042302E0056100E00023FF2AC3
:1008100001D8064601E000F104064FEA840501D93B
:10082000A5F12005D6F8008007FA05FC28EA0C0897
:1008300003FA05F548EA0508C6F800804D68ED00A2
:100840005BD5344DAE6946F00106AE61AD6924F06A
:10085000030605F0010500952F4D06EB050CDCF8AD
:100860000850A607360F07FA06F825EA0805DFF84C
:10087000AC80404503D14FF0000810E03DE0DFF8C8
:10088000A080404502D14FF0010808E0DFF89480D5
:10089000404502D14FF0020801E04FF0030808FA8A
:1008A00006F848EA0508CCF808804D68D9F80060D9
:1008B000ED024D4601D5164300E096432E604D688B
:1008C000DAF80060AD02554601D5164300E09643C4
:1008D0002E604D68DBF80060AD035D4601D5164320
:1008E00000E096432E604D68DEF80060ED0375462B
:1008F00001D5164300E096432E60641C0A6832FA64
:1009000004F57FF43FAFBDE8F88F00000804014014
:1009100000001110001002400000014000080140DA
:10092000000C0140001001400AB101617047090448
:10093000FBE7000001488068704700000C000020C1
:100940000248816802781144816070470C000020E1
:10095000074810B5016841F010010160032000F064
:1009600075F80F2000F006F800F024F8002010BD04
:100970000020024070B50D4D04464FF47A7128787E
:10098000B1FBF0F00A490968B1FBF0F000F0DCFAC5
:1009900048B9102C07D200222146501E00F036F82C
:1009A00000206C6070BD012070BD00000C000020B4
:1009B000180000200C4808B5816941F001018161EF
:1009C000816901F001010091C16941F08051C1616B
:1009D000C06900F0805000900448416821F0E06157
:1009E00041F00071416008BD00100240000001406C
:1009F000002809DB00F01F0201219140400980001E
:100A000000F1E020C0F8001170470000F0B40E4B78
:100A10001B680C46C3F30223C3F10705042D00D95C
:100A20000425191D072901D2002300E0DB1E012641
:100A300006FA05F1491E214099409E40761E164057
:100A40003143F0BC00F015BF0CED00E0064900F0AA
:100A5000070208684FF6FF03184040EA0220034AE5
:100A600010430860704700000CED00E00000FA053C
:100A70002DE9F0470F46050061D0434E306800F085
:100A80000700B84209D2306820F0070038433060D0
:100A9000306800F00700B84251D128683B4C81070C
:100AA00012D5400703D5606840F4E06060602878A4
:100AB000000703D5606840F4605060606068A96812
:100AC00020F0F000084360602878C00728D06868EC
:100AD000012810D02168022810D0890700292EDAB9
:100AE000616821F0030101436160FFF723FF804645
:100AF00041F288390DE021688903EFE78901EDE7CC
:100B0000FFF718FFA0EB0801494502D90320BDE813
:100B1000F0876068696800F00C00B0EB810FEFD1DE
:100B2000306800F00700B8420BD9306820F00700A9
:100B300038433060306800F00700B84201D001202F
:100B4000E5E72878400705D56068E96820F4E060AB
:100B5000084360602878000706D56068296920F49A
:100B6000605040EAC100606000F038F86168084AEF
:100B7000C1F30311515CC84006490860064800688B
:100B8000FFF7F8FE0020C2E70020024000100240FC
:100B90002222000818000020100000200448054907
:100BA00000684968044AC1F30221515CC84070479B
:100BB00018000020001002403222000804480549B5
:100BC00000684968044AC1F3C221515CC8407047BB
:100BD0001800002000100240322200080E4A51681E
:100BE0000E4801F00C03042B11D0082B0FD10C4838
:100BF000C1F38343C903C05C0AD55168084AC1F3F5
:100C00004041921E515C054A5043B0FBF1F07047E1
:100C100004494843704700000010024000127A0067
:100C20001222000800093D002DE9F84F040070D0A1
:100C30002078C04DC00749D06868C0F38100012802
:100C400007D06868C0F38100022809D16868C00332
:100C500006D52868800339D560680028E7D035E0DC
:100C60006068B0F5803F0BD010B1B0F5A02F11D067
:100C7000286820F480302860286820F4802002E072
:100C8000286840F480302860606890B1FFF752FE19
:100C900006460AE0286840F480202860F0E700BF9C
:100CA000FFF748FE801B642873D828688003F7D5B7
:100CB0000CE0FFF73FFE064605E000BFFFF73AFEF7
:100CC000801B6428F0D828688003F7D420789A4ED7
:100CD00080074FF001094FF0000839D5686810F01F
:100CE0000C0F07D06868C0F38100022809D168683A
:100CF000C00306D42868800714D52069012808D1CC
:100D000010E02069B0B1C6F80090FFF713FE074667
:100D100005E00AE1FFF70EFEC01B0228C4D82868D0
:100D20008007F7D52868616920F0F80040EAC10023
:100D300028600DE0C6F80080FFF7FCFD074604E0E0
:100D4000FFF7F8FDC01B022823D828688007F7D4D6
:100D5000207800072CD57948A169D9B1C0F8009056
:100D6000FFF7E8FD074604E0FFF7E4FDC01B02289B
:100D70000FD8686A8007F7D571484FF4FA510068B8
:100D8000B0FBF1F0009000BF0098411E0091FAD234
:100D90000EE080E0C0F80080FFF7CCFD074604E0DD
:100DA000FFF7C8FDC01B022875D8686A8007F7D412
:100DB0002078400760D5E8690027C00008D4E869BA
:100DC00040F08050E861E869012700F08050009011
:100DD0005C480168C90513D40168834641F48071F9
:100DE0000160FFF7A7FD824606E000BFFFF7A2FD06
:100DF000A0EB0A0064284ED8DBF80000C005F5D54A
:100E0000E06801280AD008B1052813D0286A20F02C
:100E100001002862286A20F0040002E0286A40F0FD
:100E200001002862E06841F2883B98B1FFF782FD3B
:100E300082460BE0286A40F004002862EEE700BF1B
:100E4000FFF778FDA0EB0A0159455AD8286A8007B8
:100E5000F6D50CE0FFF76EFD824605E0FFF76AFD70
:100E6000A0EB0A0159454CD8286A8007F6D41FB177
:100E7000E86920F08050E861E06988B36968C1F3EF
:100E80008101022944D00228C6F8608004D0FFF70F
:100E900051FD044638E034E0FFF74CFD074604E01E
:100EA000FFF748FDC01B02282BD828688001F7D423
:100EB000206AB0F5803F05D16868A16820F4003051
:100EC00008436860D4E908010843696821F4741193
:100ED00008436860C6F86090FFF72CFD044606E002
:100EE00025E000BFFFF726FD001B022809D828686F
:100EF0008001F7D51BE000BFFFF71CFD001B022897
:100F000002D90320BDE8F88F28688001F4D40EE0F0
:100F10000128F7D06868226A00F48031914204D138
:100F2000616A00F47010884201D00120EAE70020D5
:100F3000E8E7000000100240000042428004424204
:100F4000180000200070004010B5401EB0F1807FF6
:100F500001D3012010BD4FF0E02460610F21601724
:100F600000F087FC0020A06107202061002010BD58
:100F700070477047F8B5016804460868CA684B694D
:100F800010F00F0F4FF0000559D003F0010602F4E6
:100F90009077374365D0C10705D0D10503D5616C83
:100FA00041F001016164410705D5D90703D0616CA7
:100FB00041F002016164810705D5D90703D0616C56
:100FC00041F004016164010707D502F020013143BB
:100FD00003D0616C41F008016164616C00293AD072
:100FE000800604D5900602D5204600F029FB206833
:100FF0004069616CC0F38010090700D460B32046DB
:1010000000F0F7FA20684069400621D520681430C6
:1010100050E8001F21F0400140E80012002AF5D1FD
:10102000E06BA8B16D494163E06BFFF73FFB00281F
:1010300011D0E06B416B01B0BDE8F040084783067A
:101040000FD593060DD52046BDE8F84000F0F8BA5C
:101050002046FFF78EFFF8BD2046FFF78AFF656444
:10106000F8BD266B2023012E7CD1C6067AD5D60684
:1010700078D508684868009048694FF00206400635
:1010800040D5E16B086840680004000CE8D0A28DF0
:101090008242E5D9E085886920282DD020680C306F
:1010A00050E8001F21F4807140E80012002AF5D1B9
:1010B0002068143050E8001F21F0010140E80012C0
:1010C000002AF5D12068143050E8001F21F04001BB
:1010D00040E80012002AF5D184F8423025632068E8
:1010E0000C3050E8001F21F0100140E80012002AE7
:1010F000F5D1E06BFFF7B7FA6663A08DE18D401A7A
:1011000081B22AE0A08DE18D401A81B2E08D0028E5
:10111000A6D00029A4D022680C3252E8000F20F497
:10112000907042E80007002FF5D12068143050E895
:10113000002F22F0010240E80027002FF5D184F8AB
:101140004230256320680C3050E8002F22F0100256
:1011500040E80023002BF5D166632046FFF708FF27
:10116000F8BDFFE705062BD5150629D594F84100F3
:101170002128F5D1A068B0F5805F01D12069B0B118
:10118000206A411C2162216800784860E08C401E82
:101190000004000CE084E3D12068C16821F08001E4
:1011A000C1602068C16841F04001C160D8E7206A91
:1011B0000088C0F308004860206A801C2062E5E7D0
:1011C0004006CDD55006CBD5CA68204622F0400255
:1011D000CA6084F8413000F02FF9C1E7E315000838
:1011E00070B5040004D094F84100002510B106E069
:1011F000012070BD84F84050204600F023F82420E0
:1012000084F841002068C16821F40051C160204683
:1012100000F078FA2068016921F4904101612068AA
:10122000416921F02A0141612068C16841F40051FF
:10123000C1606564202084F8410084F84200656341
:10124000002070BD30B585B0002400940194029454
:1012500003942F4D03682F4802210322AB4231D162
:10126000836943F480438361836903F48043049377
:10127000836943F0080383618069274D00F008000B
:1012800004904020CDE90001039269462846FFF70B
:101290006BFA8020CDE90004694628460294FFF7E6
:1012A00063FA1E48416841F0E06141F00401416089
:1012B000002211462520FFF7A9FB2520FFF798FB08
:1012C00005B030BD164DAB42FAD1C36943F40033CB
:1012D000C361C36903F400330493836943F00403D7
:1012E000836180690F4D00F0040004900420CDE973
:1012F0000001039269462846FFF736FA0820CDE937
:101300000004694628460294FFF72EFAD8E7000049
:101310000038014000100240000C01400000014074
:10132000004400400008014090F84230202B01D0DA
:101330000220704721B11AB10023036300F03EBAC6
:101340000120704730B400680F49884211D10F481E
:10135000818800227F2915D2C47881880C4B5D18C2
:10136000491C81802C700A2C05D181885A54012196
:10137000017030BC70470549012230BCC91C0548CA
:10138000FFF7D2BF8280F6E700380140000000205E
:101390001C000020CC0100202DE9F843044690F801
:1013A0004100984616460D46202802D00220BDE88E
:1013B000F88385B17EB100206064212084F841006B
:1013C000FFF7B8FAA6848146E684A0682027B0F526
:1013D000805F02D003E00120E9E7206910B12E46CA
:1013E00000250EE000260CE08021204600F001FAE6
:1013F000A8B9C6B116F8010B21684860E08C401E00
:10140000E084E08C4B464FF00002CDF800800028CD
:10141000EAD14FF04001204600F0EBF940B184F8EA
:1014200041700320C3E735F8020BC0F30800E3E77F
:1014300084F841700020BAE77047FEE72DE9F047D5
:1014400086B000262C480096019602960396816984
:1014500041F010018161816901F0100104918169FD
:1014600041F004018161816901F004010491816905
:1014700041F0080181618069DFF8808000F0080098
:101480004FF400540490002221464046FFF74CFAE6
:10149000DFF86C90002203214846FFF745FADFF899
:1014A00064A04FF49057002239465046FFF73CFAAB
:1014B00001258DE870000224694640460394FFF739
:1014C00053F9CDE902640095694648460195FFF756
:1014D0004BF9CDE900450294694648460394FFF76D
:1014E00043F9CDE90264CDE9007569465046FFF73E
:1014F0003BF906B0BDE8F087001002400010014043
:1015000000080140000C01400C4810B50A49016078
:101510004FF4E1314160002181600C22C160C0E9DB
:1015200004128161C161FFF75BFE002803D0BDE8B2
:101530001040FFF796B810BD00380140CC010020E4
:101540000C4810B50A4901604FF4E13141600021B7
:1015500081600C22C160C0E904128161C161FFF7A2
:101560003FFE002803D0BDE81040FFF77AB810BD59
:101570000044004014020020FEE7FEE77047704779
:10158000FFF7DEB930B58FB028216846FEF777FF48
:1015900014210AA8FEF773FF02250120049000958C
:1015A0001020059000244FF46010CDE90840079505
:1015B0006846FFF739FB08B172B6FEE70F20CDE9A8
:1015C0000A054FF48060CDE90C4002210AA80E9470
:1015D000FFF74EFA002801D072B6FEE70FB030BD1B
:1015E000704710B5406A0021C185C184FFF7C1FC76
:1015F00010BD01680C3151E8002F22F4907241E8CF
:101600000023002BF5D10168143151E8002F22F09E
:10161000010241E80023002BF5D1016B012909D11A
:1016200001680C3151E8002F22F0100241E800233C
:10163000002BF5D1202180F8421000210163704772
:1016400008B590F84210222901D0022008BD826816
:101650004FF480539A4201D1016921B1816A9A42C3
:101660001BD04AB10AE00268816A5268C2F30802DC
:101670000A80816A891C08E0026972B102685268B6
:1016800002F07F020A70816A491C8162C18D491E85
:101690000904090CC18503D01BE002685268F1E718
:1016A0000168CA6822F02002CA600168CA6822F490
:1016B0008072CA6001684A6922F001024A612021F1
:1016C00080F8421000214163026B012A03D0FFF72A
:1016D00039FE002008BD016301680C3151E8002F7C
:1016E00022F0100241E80023002BF5D101680A68BE
:1016F000D20602D50A6849680091818DFFF738FC4F
:10170000E7E7000070B5044600680169E26821F46B
:101710004051114301612169A06808436169084390
:101720002168CA6841F20C639A430243CA60206888
:101730004169A26921F44071114341611E49206849
:10174000884202D1FFF73AFA01E0FFF727FA00EBEF
:10175000C00101EB0012606864218000B2FBF0F36D
:10176000B3FBF1F36FF018067343B2FBF0F5B2FB75
:10177000F0F605EB8305322303EB0515B5FBF1F518
:10178000B6FBF1F605F0F00505EB0615B2FBF0F639
:10179000B2FBF0F0B0FBF1F06FF01802504306EB33
:1017A000800003EB0010B0FBF1F0216800F00F00A7
:1017B0002844886070BD0000003801408162828545
:1017C000C28500214164222180F84210016921B1C3
:1017D0000168CA6842F48072CA6001684A6942F0CE
:1017E00001024A610068C16841F02001C160002027
:1017F00070472DE9F843984617460D460446089E63
:1018000024E0701C22D0FFF795F8A0EB0800B0424E
:101810001AD8CEB12068C168490717D5802D15D0D8
:10182000402D13D00168C94309070FD40168002572
:10183000406800902046FFF7DCFE0820606484F8D2
:1018400040500120BDE8F8830320FBE720680068D2
:1018500035EA000004D00020B842D2D00020F1E7E1
:101860000120F9E70148FFF785BB0000CC0100200B
:10187000FEE70907090E002804DB00F1E02080F8EC
:101880000014704700F00F0000F1E02080F8141DF4
:10189000704770B50C460546FFF74CF8401BA04258
:1018A00001D9012070BD002070BD000070B5074C4B
:1018B0000025A58080210648FEF7BFFD2570012286
:1018C000E11CBDE870400348FFF72EBD000000207A
:1018D0001C000020CC010020FFF73AF8FFF752FE71
:1018E000FFF7ACFDFFF710FEFFF72AFE00F0B8F897
:1018F0004FF4FA60FEF726FF00F00EFCFCE7000054
:1019000010B5FFF717F80149886010BD00000020EE
:101910002DE9F0413A4CA07802286FD0A0784FF022
:10192000FF3570B3012869D141F28831A068FFF713
:10193000B0FF002650B133A13948FEF74DFC82B20A
:101940002B4637493748FFF727FDA6702078002837
:1019500054D0354F0622B91DA7F18000FEF722FDB5
:10196000A7F1800208B331A12D48FEF735FC82B201
:101970002B462B492B48FFF70FFDBDE8F041FFF741
:1019800095BF294800F032FC274A2DA12448FEF7D4
:1019900023FC82B22B4622492248FFF7FDFC01209E
:1019A000A070BDE8F041FFF7ABBF29A11C48FEF7CE
:1019B00013FC82B22B461A491A48FFF7EDFC1A486D
:1019C0008038B0F807003882BE74174910310E46CF
:1019D00001F11000FEF7C2FC0A2087F8220032460F
:1019E00018A10F48FEF7F8FB82B22B460C490D48B0
:1019F000FFF7D2FC0220A070BFE7FFE7BDE8F0814F
:101A0000000000204765742049442074696D656FAB
:101A100075742C207265747279696E670D0A000006
:101A2000CC000020140200209C0000204765742098
:101A30004944206661696C3A2025730D0A00000054
:101A40004765742049443A2025730D0A00000000C0
:101A5000476574204944204F4B3A2025730D0A00F6
:101A600010B500224FF400711348FEF75DFF134CD0
:101A7000002201212046FEF757FF01221146204691
:101A8000FEF752FF0E490020487088700122C91CE1
:101A90000C48FFF749FC0CA000F0A8FB0BA10F4875
:101AA000FEF79AFB82B2BDE810404FF0FF330B49BE
:101AB0000B48FFF771BC0000000C0140000801401A
:101AC00000000020CC0100202B41540053746172AF
:101AD00074696E672E2E2E0D0A000000CC000020C7
:101AE000140200202DE9F05FB64C6078062874D00F
:101AF0006078072871D06078012510274FF0FF36F5
:101B00004FF00A084FF008094FF00C0B4FF00E0A87
:101B1000122862D2DFE800F0092D326267617D6130
:101B2000898EA6ABE4F0ECEBEAE92078002854D0EB
:101B3000A5A1AE48FEF750FB82B23346AB49AC4894
:101B4000FFF72AFCAB4AACA1A848FEF745FB82B2DE
:101B50003346A649A648FFF71FFC0722AAA1A548BD
:101B6000FEF720FC18B1AAA000F040FBB4E06570BD
:101B7000B2E0A8A000F03AFB0220FEE020780028A6
:101B80002BD00522A5A19B48FEF70CFC90B10522A5
:101B9000A4A19848FEF706FC88B10522A3A19548A8
:101BA000FEF700FC00280CD0924AA2A18F48FEF755
:101BB00013FB25E0AAA18D48FEF70EFB65E0B2A15C
:101BC00000E0BCA18948FEF707FB82B23346874993
:101BD0008748FFF7E1FB67707EE085E0BCA000F07E
:101BE00005FB0420C9E0207800287DD00222BAA19C
:101BF0008048FEF7D7FB50B1B8A17C48FEF7ECFA5D
:101C000082B2334679497A48FFF7C6FBAFE7BCA1F9
:101C1000F3E7CAA17548FEF7DFFA3346BDE8F05F87
:101C200082B272497248FFF7B7BBCCA000F0DEFA6F
:101C30000920A2E02078002856D00222A6A16D48F3
:101C4000FEF7B0FB08B1C7A188E0CFA16748FEF757
:101C5000C3FA82B2334665496548FFF79DFB06200B
:101C6000607039E0CDA000F0C1FA0B2085E020784B
:101C7000002839D00522CCA15E48FEF793FB5D4ACF
:101C800058B1CBA15948FEF7A7FA82B2334657495B
:101C90005748FFF781FB4046E2E75648D0A1803025
:101CA000521DFEF799FA534AD0A15048FEF794FA14
:101CB00082B233464D494E48FFF76EFB84F801B0BF
:101CC0004C4ACCA180324948FEF786FA82B23346AC
:101CD00046494748FFF760FBBDE8F05FFFF7E6BD08
:101CE000C7A000F083FA05E048E049E041E01FE0CA
:101CF00019E001E00D2040E0207800283ED00E22BF
:101D0000C4A13C48FEF74EFB58B1C6A13748FEF7C8
:101D100063FA82B2334635493548FFF73DFB5846F2
:101D20009EE7C9A10EE0D0A000F060FA0F2024E0E9
:101D30002078002822D00A22CFA12E48FEF732FBBD
:101D400058B1D0A12948FEF747FA82B23346274955
:101D50002748FFF721FB504682E7D3A12348FEF72F
:101D60003BFA82B2334621492148FFF715FB48462A
:101D700076E7D5A000F03AFA11206070BDE8F09F38
:101D800020780028FAD00522D2A11A48FEF70AFBD3
:101D900060B1184A18A11548FEF71EFA82B2334600
:101DA00012491348FFF7F8FACCA10BE7D3A10F486B
:101DB000FEF712FA82B233460C490D48FFF7ECFAEF
:101DC00003204DE7000000205374617274696E6750
:101DD000205A6967626565206E6574776F726B2043
:101DE000636865636B2E2E2E0D0A0000CC00002068
:101DF000140200201C00002072785F627566666520
:101E0000723A2025730D0A0041545F4D4F4445003E
:101E10002B41540041542B4E574B3F004E574B3DE6
:101E2000310000004E574B3D300000004E574B3DF7
:101E3000320000004572726F723A20556E657870FC
:101E4000656374656420726573706F6E736520746A
:101E50006F2041542B4E574B3F3A2025730D0A00FB
:101E60004E6574776F726B20737461747573204F55
:101E70004B2E205374617274757020636F6D706C9B
:101E80006574652E0D0A00004E6F7420696E206126
:101E9000206E6574776F726B2E20417474656D705F
:101EA00074696E6720746F206A6F696E2E2E2E0D16
:101EB0000A0000004E6574776F726B206F66666C67
:101EC000696E652C2072656465746563740D0A0023
:101ED00041542B4A4F494E004F4B00004572726FE0
:101EE000723A2041542B4A4F494E20636F6D6D6109
:101EF0006E64206661696C65642E0D0A0000000046
:101F00004A6F696E20636F6D6D616E6420616363FB
:101F100065707465642E2057616974696E67206608
:101F20006F72206E6574776F726B20636F6E6E6573
:101F30006374696F6E2E2E2E0D0A00005A69676257
:101F40006565206E6574776F726B20696E697420A9
:101F5000636F6D706C6574652E0D0A0041542B45DE
:101F6000584954004572726F723A2041542B4558BB
:101F7000495420636F6D6D616E64206661696C65A4
:101F8000642E0D0A0000000041542B45584954208E
:101F900066696E6973682E0D0A00000041542B417A
:101FA0004444523F00000000414444523D000000C0
:101FB0004572726F723A2041542B4144445220635F
:101FC0006F6D6D616E64206661696C65642E2C2096
:101FD00072785F6275666665723A2025730D0A0035
:101FE00047455449443A25730D0A000025730D0AEC
:101FF00000000000414444523A2025730D0A0000BD
:1020000041542B445354414444523D307830303095
:1020100030000000445354414444523D3078303045
:10202000303000004572726F723A2041542B445395
:10203000544144445220636F6D6D616E642066614B
:10204000696C65642E0D0A0041542B44535441447D
:10205000445220636F6D6D616E64206163636570CF
:102060007465642E0D0A000041542B4453544550AE
:102070003D3078303100000044535445503D3078B5
:10208000303100004572726F723A2041542B445334
:1020900054455020636F6D6D616E64206661696C9C
:1020A00065642E0D0A00000041542B4453544550E2
:1020B00020636F6D6D616E6420616363657074652C
:1020C000642E0D0A0000000041542B43483D31317D
:1020D0000000000043483D31310000004572726F3E
:1020E000723A2041542B434820636F6D6D616E64DA
:1020F000206661696C65642E0D0A000041542B4313
:102100004820636F6D6D616E6420616363657074F8
:1021100065642E0D0A00000006484178062901D0AA
:10212000FFF7E0BC8078022801D0FFF7F1BB00F098
:1021300003B800000000002070B51F4D287800286B
:1021400039D01E4A1EA12248FEF746F882B24FF04F
:10215000FF3633461E491F48FFF71EF906221EA10F
:102160001648FEF71FF910BB144914489031FEF7CA
:10217000E3F8E0B11149441AA41F224618A11448FB
:10218000FEF72AF882B2334611491248FFF704F9E4
:10219000FFF7B6FBC4EB041044002146A868FFF724
:1021A00078FB0028F9D00548A03000F01FF8BDE802
:1021B0007040FFF77BBB70BD000000201C000020BA
:1021C00072785F6275666665723A2025730D0A0043
:1021D000CC000020140200204D444154413A00003C
:1021E0006C656E3A2025640D0A00000010B50146AA
:1021F0000548FDF7F1FF82B2BDE810404FF0FF3314
:1022000001490248FFF7C8B8CC000020CC010020EB
:10221000010202030405060708090A0B0C0D0E0F44
:102220001010000000000000000001020304060777
:102230000809000000000102030400005C220008FD
:10224000000000201C00000028010008782200087F
:102250001C000020A4080000440100080000000049
:10226000000000000000000001000000100000005D
:082270000000000000127A00DA
:04000005080000ED02
:00000001FF
